:100000000C9446000C9465000C9465000C946500FB
:100010000C9465000C9465000C9465000C946500CC
:100020000C9465000C94F4020C9465000C9465002B
:100030000C9465000C9465000C9465000C946500AC
:100040000C9465000C9465000C9461150C9465008B
:100050000C9465000C9465000C9465000C9465008C
:100060000C9465000C9465000C9465000C9465007C
:100070000C9465000C9465000C9465000C9465006C
:100080000C9465000C9465000C94650011241FBE4F
:10009000CFEFD0E1DEBFCDBF13E0A0E0B1E0ECEFE9
:1000A000F7E500E00BBF02C007900D92A830B10742
:1000B000D9F713E0A8E0B3E001C01D92A23BB1075D
:1000C000E1F70E9474160C94FC2B0C9400000F9323
:1000D0001F93DF93CF93CDB7DEB76E970FB6F8942B
:1000E000DEBF0FBECDBF81E060E00E94550980E019
:1000F00090E0A8ECB2E489839A83AB83BC836981E6
:100100007A818B819C8120E030E04AEF54E40E94A8
:100110005D26DC01CB018D839E83AF83B88711E020
:100120006D817E818F81988520E030E040E85FE33B
:100130000E94952888230CF010E0112329F081E01B
:1001400090E09A87898746C011E06D817E818F811A
:10015000988520E03FEF4FE757E40E9435281816B6
:100160000CF010E0112361F169817A818B819C810F
:1001700020E030E040E251E40E945D26DC01CB014A
:10018000BC01CD010E948924DC01CB019A878987BB
:1001900012C088EC90E09C878B878B859C858C01B6
:1001A000C8010197F1F78C011C870B8789859A8517
:1001B00001979A87898789859A85009751F717C093
:1001C0006D817E818F8198850E948924DC01CB011D
:1001D0009A87898789859A859E878D878D859E8553
:1001E0008C01C8010197F1F78C011E870D8780E013
:1001F00060E00E942E1580E091E00E94731480E37D
:100200008D8F80E38E8F00000E9414238F34E1F7DE
:1002100080E060E00E942E1585E091E00E9473145A
:100220008FE48D8F80E060E00E942E158EE091E0DB
:100230000E9473140E9414238E8F81E060E00E945C
:10024000550980E090E0A8ECB2E48F87988BA98BE9
:10025000BA8B6F85788989899A8920E030E04AEFE6
:1002600054E40E945D26DC01CB018B8B9C8BAD8B13
:10027000BE8B11E06B897C898D899E8920E030E0FE
:1002800040E85FE30E94952888230CF010E01123DA
:1002900029F081E090E0988F8F8B46C011E06B8948
:1002A0007C898D899E8920E03FEF4FE757E40E94CB
:1002B000352818160CF010E0112361F16F8578894C
:1002C00089899A8920E030E040E251E40E945D266D
:1002D000DC01CB01BC01CD010E948924DC01CB01F2
:1002E000988F8F8B12C088EC90E09A8F898F898DC0
:1002F0009A8D8C01C8010197F1F78C011A8F098F33
:100300008F89988D0197988F8F8B8F89988D009703
:1003100051F717C06B897C898D899E890E94892439
:10032000DC01CB01988F8F8B8F89988D9C8F8B8F61
:100330008B8D9C8D8C01C8010197F1F78C011C8F6E
:100340000B8F80E060E00E942E1586E191E00E9414
:10035000731480E061E00E942E158D8D61E00E9493
:1003600055098E8D61E00E9455098D8D8F3429F4D9
:100370008E8D8B3411F481E001C080E06E960FB653
:10038000F894DEBF0FBECDBFCF91DF911F910F91CB
:100390000895DF93CF9300D000D0CDB7DEB79A8316
:1003A00089837C836B8386E291E00E94D1238BE278
:1003B0000E94982389E291E00E94D1238DE30E945C
:1003C000982381E30E9498238DE00E9498230E9445
:1003D00067008130E1F58EE291E00E94D12382E254
:1003E0000E9498230CC089819A81FC012081898117
:1003F0009A8101969A838983822F0E94982389810A
:100400009A81FC018081882371F782E20E949823FF
:100410008DE00E94982300000E9414238E33E1F7A0
:100420000CC08B819C81FC0120818B819C81019679
:100430009C838B83822F0E9498238B819C81FC015B
:100440008081882371F78AE10E94982301C080E0AF
:100450000F900F900F900F90CF91DF9108950F9311
:100460001F93DF93CF93CDB7DEB760970FB6F894A5
:10047000DEBF0FBECDBF988B8F8787E391E00E94D0
:10048000D1230CC08F859889FC0120818F859889A4
:100490000196988B8F87822F0E9498238F85988949
:1004A000FC018081882371F78BE30E9498238DE003
:1004B0000E94982380E060E00E942E158BE391E07B
:1004C0000E94731480E090E0A0E2B1E489839A83F3
:1004D000AB83BC8369817A818B819C8120E030E091
:1004E0004AEF54E40E945D26DC01CB018D839E839C
:1004F000AF83B88711E06D817E818F81988520E080
:1005000030E040E85FE30E94952888230CF010E07B
:10051000112329F081E090E09A87898746C011E095
:100520006D817E818F81988520E03FEF4FE757E412
:100530000E94352818160CF010E0112361F1698132
:100540007A818B819C8120E030E040E251E40E947E
:100550005D26DC01CB01BC01CD010E948924DC01B8
:10056000CB019A87898712C088EC90E09C878B87A3
:100570008B859C858C01C8010197F1F78C011C8744
:100580000B8789859A8501979A87898789859A85B6
:10059000009751F717C06D817E818F8198850E94E9
:1005A0008924DC01CB019A87898789859A859E8772
:1005B0008D878D859E858C01F8013197F1F78F012C
:1005C0001E870D870E946700813011F481E001C011
:1005D00080E060960FB6F894DEBF0FBECDBFCF911E
:1005E000DF911F910F9108951F920F920FB60F92F6
:1005F00000905B000F9211242F933F934F935F93D2
:100600006F937F938F939F93AF93BF93EF93FF93DA
:10061000DF93CF93CDB7DEB780E790E023E0FC0116
:10062000208388E20E94EC069093130380931203C8
:1006300089E20E94EC06909329038093280380911D
:10064000280390912903382F22278091120390913B
:100650001303822B932B90931303809312038AE24C
:100660000E94EC0690931503809314038BE20E9482
:10067000EC0690932903809328038091280390919E
:100680002903382F22278091140390911503822B80
:10069000932B90931503809314038CE20E94EC0635
:1006A00090931703809316038DE20E94EC069093BB
:1006B0002903809328038091280390912903382FE0
:1006C00022278091160390911703822B932B9093EE
:1006D00017038093160380911603909117039C01D2
:1006E000442737FD4095542F80913803909139036A
:1006F000A0913A03B0913B03281739074A075B07DB
:100700005CF480911603909117031816190624F4CF
:1007100010921703109216038091160390911703FD
:100720009C01442737FD4095542F809138039091C8
:100730003903A0913A03B0913B03B095A0959095F1
:1007400081959F4FAF4FBF4F82179307A407B507FF
:1007500054F48091160390911703992324F4109276
:1007600017031092160380911403909115039C01B6
:10077000442737FD4095542F8091340390913503E1
:10078000A0913603B0913703281739074A075B0752
:100790005CF480911403909115031816190624F443
:1007A0001092150310921403809114039091150375
:1007B0009C01442737FD4095542F8091340390913C
:1007C0003503A0913603B0913703B095A09590956D
:1007D00081959F4FAF4FBF4F82179307A407B5076F
:1007E00054F48091140390911503992324F41092EA
:1007F00015031092140380911203909113039C012E
:10080000442737FD4095542F809130039091310358
:10081000A0913203B0913303281739074A075B07C9
:100820005CF480911203909113031816190624F4B6
:1008300010921303109212038091120390911303EC
:100840009C01442737FD4095542F809130039091AF
:100850003103A0913203B0913303B095A0959095E8
:1008600081959F4FAF4FBF4F82179307A407B507DE
:1008700054F48091120390911303992324F410925D
:100880001303109212038091160390911703AA2765
:1008900097FDA095BA2FBC01CD010E94C528DC01AF
:1008A000CB01BC01CD0129E23CE54FE85DE30E94AC
:1008B0005D26DC01CB01BC01CD0122E838EA4BEF1B
:1008C0005BE30E945D26DC01CB0120912003309187
:1008D00021034091220350912303BC01CD010E94CA
:1008E000FF25DC01CB018093200390932103A0938B
:1008F0002203B09323038091120390911303AA273C
:1009000097FDA095BA2FBC01CD010E94C528DC013E
:10091000CB01BC01CD0129E23CE54FE85DE30E943B
:100920005D26DC01CB01BC01CD0122E838EA4BEFAA
:100930005BE30E945D26DC01CB012091180330911E
:10094000190340911A0350911B03BC01CD010E9471
:10095000FF25DC01CB018093180390931903A0932A
:100960001A03B0931B038091140390911503AA27D7
:1009700097FDA095BA2FBC01CD010E94C528DC01CE
:10098000CB01BC01CD0129E23CE54FE85DE30E94CB
:100990005D26DC01CB01BC01CD0122E838EA4BEF3A
:1009A0005BE30E945D26DC01CB0120911C033091AA
:1009B0001D0340911E0350911F03BC01CD010E94F5
:1009C000FF25DC01CB0180931C0390931D03A093B2
:1009D0001E03B0931F0384E490E0FC018081882F04
:1009E00090E0909329038093280384E490E0209181
:1009F000280330912903FC012083809141039091C9
:100A0000420301969093420380934103809118031F
:100A100090911903A0911A03B0911B03BC01CD0161
:100A200020E030E044EB53E40E940528882391F055
:100A30008091180390911903A0911A03B0911B03A0
:100A4000BC01CD0120E030E044EB53EC0E940528CE
:100A5000882359F480E090E0DC01809318039093A0
:100A60001903A0931A03B0931B0380911C03909168
:100A70001D03A0911E03B0911F03BC01CD0120E016
:100A800030E044EB53E40E940528882391F08091E4
:100A90001C0390911D03A0911E03B0911F03BC0184
:100AA000CD0120E030E044EB53EC0E940528882380
:100AB00059F480E090E0DC0180931C0390931D03C7
:100AC000A0931E03B0931F038091200390912103F4
:100AD000A0912203B0912303BC01CD0120E030E0BE
:100AE00044EB53E40E940528882391F08091200371
:100AF00090912103A0912203B0912303BC01CD0169
:100B000020E030E044EB53EC0E940528882359F4A0
:100B100080E090E0DC018093200390932103A09378
:100B20002203B0932303CF91DF91FF91EF91BF9107
:100B3000AF919F918F917F916F915F914F913F9175
:100B40002F910F9000925B000F900FBE0F901F909F
:100B50001895DF93CF93CDB7DEB780E790E023E021
:100B6000FC01208381E790E0FC01108282E390E0A9
:100B700022E330E0F90120812360FC01208385E439
:100B800090E02DE0FC01208387E590E027E530E050
:100B9000F90120812068FC01208383E490E028E7AC
:100BA000FC0120830E94FF0582ED0E943D0680E249
:100BB0000E948B068FEE0E948B060E94D5060E9433
:100BC000FF0582ED0E943D0683E20E948B0680E2D3
:100BD0000E948B060E94D506CF91DF910895DF9386
:100BE000CF93CDB7DEB787E590E027E530E0F90198
:100BF00020812F77FC012083CF91DF910895DF932F
:100C0000CF93CDB7DEB784E790E024EAFC012083E0
:100C1000000084E790E0FC0180818823D4F7000085
:100C200081E790E0FC018081882F90E0887F9070C0
:100C300088309105A9F7CF91DF910895DF93CF9385
:100C4000CDB7DEB784E790E024EAFC012083000002
:100C500084E790E0FC0180818823D4F7000081E7DD
:100C600090E0FC018081882F90E0887F9070803137
:100C70009105A9F7CF91DF910895DF93CF930F925C
:100C8000CDB7DEB7898383E790E02981FC0120831B
:100C900084E790E024E8FC012083000084E790E0F2
:100CA000FC0180818823D4F7000081E790E0FC01FB
:100CB0008081882F90E0887F907088319105A9F716
:100CC0000F90CF91DF910895DF93CF930F92CDB71F
:100CD000DEB7898383E790E02981FC01208384E7E4
:100CE00090E024E8FC012083000084E790E0FC0110
:100CF00080818823D4F7000081E790E0FC018081A7
:100D0000882F90E0887F907080349105A9F70F902C
:100D1000CF91DF910895DF93CF930F92CDB7DEB7D8
:100D2000898383E790E02981FC01208384E790E0B8
:100D300024E8FC012083000084E790E0FC0180812E
:100D40008823D4F7000081E790E0FC018081882FA0
:100D500090E0887F907088329105A9F70F90CF912D
:100D6000DF910895DF93CF93CDB7DEB784E790E0AE
:100D700024E8FC012083000084E790E0FC018081EE
:100D80008823D4F7000081E790E0FC018081882F60
:100D900090E0887F907088359105A9F783E790E00F
:100DA000FC018081CF91DF910895DF93CF93CDB780
:100DB000DEB784E790E024E9FC012083000084E7AB
:100DC00090E0FC018081882F90E080719070009706
:100DD000B1F7CF91DF910895DF93CF9300D00F92B9
:100DE000CDB7DEB78B830E94FF0582ED0E943D06E2
:100DF0008B810E948B060E941E0683ED0E94640672
:100E00000E94B206882F90E09A8389830E94D506BB
:100E100089819A810F900F900F90CF91DF91089563
:100E20000F931F93DF93CF93CDB7DEB760970FB6C5
:100E3000F894DEBF0FBECDBF1A8219821A821982C2
:100E4000D5C188E20E94EC069093130380931203AD
:100E500089E20E94EC0690932903809328038091F5
:100E6000280390912903382F222780911203909113
:100E70001303822B932B90931303809312038AE224
:100E80000E94EC0690931503809314038BE20E945A
:100E9000EC06909329038093280380912803909176
:100EA0002903382F22278091140390911503822B58
:100EB000932B90931503809314038CE20E94EC060D
:100EC00090931703809316038DE20E94EC06909393
:100ED0002903809328038091280390912903382FB8
:100EE00022278091160390911703822B932B9093C6
:100EF00017038093160380E090E0A0EAB0E48B83B0
:100F00009C83AD83BE836B817C818D819E8120E03B
:100F100030E04AE755E40E945D26DC01CB018F8377
:100F20009887A987BA8711E06F81788589859A8526
:100F300020E030E040E85FE30E94952888230CF031
:100F400010E0112329F081E090E09C878B8746C058
:100F500011E06F81788589859A8520E03FEF4FE722
:100F600057E40E94352818160CF010E0112361F1A7
:100F70006B817C818D819E8120E030E040E251E4F4
:100F80000E945D26DC01CB01BC01CD010E948924B9
:100F9000DC01CB019C878B8712C080E991E09E87A2
:100FA0008D878D859E858C01C8010197F1F78C0195
:100FB0001E870D878B859C8501979C878B878B85EA
:100FC0009C85009751F717C06F81788589859A8530
:100FD0000E948924DC01CB019C878B878B859C85B3
:100FE000988B8F878F8598898C01C8010197F1F7BD
:100FF0008C01188B0F878091120390911303992312
:10100000F4F080911203909113039C01442737FD63
:101010004095542F8091300390913103A091320379
:10102000B0913303820F931FA41FB51F8093300329
:1010300090933103A0933203B09333032EC0809179
:10104000120390911303992344F580911203909118
:101050001303909581959F4F9093130380931203F0
:1010600080911203909113039C01442737FD409512
:10107000542F8091300390913103A0913203B091AD
:101080003303820F931FA41FB51F809330039093E7
:101090003103A0933203B0933303809114039091F2
:1010A00015039923F4F080911403909115039C018A
:1010B000442737FD4095542F809134039091350398
:1010C000A0913603B0913703820F931FA41FB51F61
:1010D0008093340390933503A0933603B093370382
:1010E0002EC08091140390911503992344F58091AB
:1010F000140390911503909581959F4F909315033C
:101100008093140380911403909115039C0144274C
:1011100037FD4095542F8091340390913503A09171
:101120003603B0913703820F931FA41FB51F80931E
:10113000340390933503A0933603B0933703809123
:101140001603909117039923F4F080911603909160
:1011500017039C01442737FD4095542F8091380395
:1011600090913903A0913A03B0913B03820F931FF2
:10117000A41FB51F8093380390933903A0933A03BB
:10118000B0933B032EC080911603909117039923CF
:1011900044F58091160390911703909581959F4F88
:1011A0009093170380931603809116039091170371
:1011B0009C01442737FD4095542F8091380390912E
:1011C0003903A0913A03B0913B03820F931FA41FF0
:1011D000B51F8093380390933903A0933A03B093DB
:1011E0003B0389819A8101969A83898389819A81B7
:1011F000883C91050CF425CE809130039091310309
:10120000A0913203B091330328EC30E040E050E08D
:10121000BC01CD010E94742BDA01C9018093300317
:1012200090933103A0933203B0933303809134033E
:1012300090913503A0913603B091370328EC30E04C
:1012400040E050E0BC01CD010E94742BDA01C901DD
:101250008093340390933503A0933603B093370300
:101260008091380390913903A0913A03B0913B03E8
:1012700028EC30E040E050E0BC01CD010E94742B2E
:10128000DA01C9018093380390933903A0933A039C
:10129000B0933B0360960FB6F894DEBF0FBECDBF90
:1012A000CF91DF911F910F9108950F931F93DF93BB
:1012B000CF93CDB7DEB7CD57D0400FB6F894DEBF91
:1012C0000FBECDBF9E0124583F4FF9018083CE0150
:1012D00083589F4FFC016083CE0184589F4FFC01CF
:1012E00080818295807F8983CE0184589F4FFC0145
:1012F0008081807F8A83CE0183589F4FFC0180814B
:10130000882351F485E390E025E330E0F901208162
:101310002B7FFC01208309C085E390E025E330E0CA
:10132000F90120812460FC01208380E090E0A0E0AE
:10133000BFE38C839D83AE83BF836C817D818E816F
:101340009F812BEA3AEA4AE250E40E945D26DC01E2
:10135000CB0188879987AA87BB8711E06885798543
:101360008A859B8520E030E040E85FE30E94952875
:1013700088230CF010E0112319F081E08C87A3C0C2
:1013800011E0688579858A859B8520E030E04FE70C
:1013900053E40E94352818160CF010E0112309F4CC
:1013A00089C06C817D818E819F8120E030E04AE799
:1013B00054E40E945727DC01CB018D879E87AF87BD
:1013C000B88B6D857E858F85988920E030E04AEF67
:1013D00054E40E945D26DC01CB01898B9A8BAB8B98
:1013E000BC8B11E069897A898B899C8920E030E087
:1013F00040E85FE30E94952888230CF010E0112359
:1014000029F081E090E09E8B8D8B46C011E06989C8
:101410007A898B899C8920E03FEF4FE757E40E944F
:10142000352818160CF010E0112361F16D857E85CA
:101430008F85988920E030E040E251E40E945D26EB
:10144000DC01CB01BC01CD010E948924DC01CB0170
:101450009E8B8D8B12C088EC90E0988F8F8B8F893C
:10146000988D8C01C8010197F1F78C01188F0F8BB3
:101470008D899E8901979E8B8D8B8D899E89009782
:1014800051F728C069897A898B899C890E948924AF
:10149000DC01CB019E8B8D8B8D899E899A8F898FE4
:1014A000898D9A8D8C01F8013197F1F78F011A8F90
:1014B000098F10C0688579858A859B850E9489245B
:1014C000DC01CB018C878C858B8F8B8D182F1A9527
:1014D000F1F71B8F85E390E025E330E0F9012081EF
:1014E0002860FC01208385E390E0FC018081982F37
:1014F0009F708A81892B8B8385E390E02B81FC018F
:10150000208380E090E0A0E8BFE38C8F9D8FAE8FBA
:10151000BF8F6C8D7D8D8E8D9F8D2BEA3AEA4AE2CE
:1015200050E40E945D26DC01CB0188A399A3AAA305
:10153000BBA311E068A179A18AA19BA120E030E0C2
:1015400040E85FE30E94952888230CF010E0112307
:1015500019F081E08CA3A3C011E068A179A18AA150
:101560009BA120E030E04FE753E40E943528181695
:101570000CF010E0112309F489C06C8D7D8D8E8DE7
:101580009F8D20E030E04AE754E40E945727DC01B9
:10159000CB018DA39EA3AFA3B8A76DA17EA18FA100
:1015A00098A520E030E04AEF54E40E945D26DC017B
:1015B000CB0189A79AA7ABA7BCA711E069A57AA51B
:1015C0008BA59CA520E030E040E85FE30E949528D1
:1015D00088230CF010E0112329F081E090E09EA711
:1015E0008DA746C011E069A57AA58BA59CA520E032
:1015F0003FEF4FE757E40E94352818160CF010E033
:10160000112361F16DA17EA18FA198A520E030E0AA
:1016100040E251E40E945D26DC01CB01BC01CD011A
:101620000E948924DC01CB019EA78DA712C088EC03
:1016300090E098AB8FA78FA598A98C01C80101975E
:10164000F1F78C0118AB0FA78DA59EA501979EA75A
:101650008DA78DA59EA5009751F728C069A57AA5ED
:101660008BA59CA50E948924DC01CB019EA78DA798
:101670008DA59EA59AAB89AB89A99AA98C01F80181
:101680003197F1F78F011AAB09AB10C068A179A1AE
:101690008AA19BA10E948924DC01CB018CA38CA18F
:1016A0008BAB8BA9182F1A95F1F71BAB85E390E054
:1016B00025E330E0F9012081277FFC01208380E0D1
:1016C00090E0A0E8BFE38CAB9DABAEABBFAB6CA929
:1016D0007DA98EA99FA92BEA3AEA4AE250E40E942A
:1016E0005D26DC01CB0188AF99AFAAAFBBAF11E09B
:1016F00068AD79AD8AAD9BAD20E030E040E85FE3B6
:101700000E94952888230CF010E0112319F081E045
:101710008CAFF3C011E068AD79AD8AAD9BAD20E030
:1017200030E04FE753E40E94352818160CF010E023
:10173000112309F4D9C06CA97DA98EA99FA920E025
:1017400030E04AE754E40E945727DC01CB019E01B8
:10175000235C3F4FF90180839183A283B3838E0181
:101760000F5B1F4FCE01CD96FC016081718182819C
:10177000938120E030E04AEF54E40E945D26DC01D2
:10178000CB01F80180839183A283B383CE018F5B69
:101790009F4F11E0FC01608171818281938120E083
:1017A00030E040E85FE30E94952888230CF010E0C9
:1017B000112349F0CE018B5B9F4F21E030E0FC010B
:1017C0003183208373C0CE018F5B9F4F11E0FC01FA
:1017D000608171818281938120E03FEF4FE757E480
:1017E0000E94352818160CF010E0112309F44CC0A3
:1017F000CE01CD96FC01608171818281938120E0D0
:1018000030E040E251E40E945D26DC01CB018E0114
:101810000B5B1F4FBC01CD010E948924DC01CB0171
:10182000F8019183808327C0CE01895B9F4F28EC0C
:1018300030E0FC0131832083CE01895B9F4FFC01A6
:10184000808191818C01C8010197F1F78C01CE0153
:10185000895B9F4FFC0111830083CE018B5B9F4FFF
:101860009E012B5B3F4FF901208131812150304097
:10187000FC0131832083CE018B5B9F4FFC01808173
:101880009181009789F64CC08E010B5B1F4FCE01F2
:101890008F5B9F4FFC0160817181828193810E94E7
:1018A0008924DC01CB01F80191838083CE01875B21
:1018B0009F4F9E012B5B3F4FF90120813181FC013D
:1018C00031832083CE01875B9F4FFC018081918112
:1018D0008C01C8010197F1F78C01CE01875B9F4F06
:1018E000FC01118300831CC068AD79AD8AAD9BAD4E
:1018F0000E948924DC01CB018CAFCE01855B9F4F18
:101900002CADFC012083CE01855B9F4FFC018081C3
:10191000182F1A95F1F7CE01855B9F4FFC011083BC
:1019200085E390E025E330E0F90120812860FC01A7
:10193000208385E390E0FC018081982F9F7089814E
:10194000892B8B8385E390E02B81FC0120839E0112
:10195000245B3F4F80E090E0A0E8BFE3F901808383
:101960009183A283B3838E01005B1F4FCE01845B02
:101970009F4FFC0160817181828193812BEA3AEA59
:101980004AE250E40E945D26DC01CB01F80180832D
:101990009183A283B383CE01805B9F4F11E0FC0152
:1019A000608171818281938120E030E040E85FE3D3
:1019B0000E94952888230CF010E0112339F0CE0105
:1019C0008C5A9F4F21E0FC01208305C1CE01805B32
:1019D0009F4F11E0FC01608171818281938120E041
:1019E00030E04FE753E40E94352818160CF010E061
:1019F000112309F4DFC0CE01845B9F4FFC0160819D
:101A000071818281938120E030E04AE754E40E94B2
:101A10005727DC01CB019E012B5A3F4FF9018083F0
:101A20009183A283B3838E01075A1F4FCE018B5A35
:101A30009F4FFC01608171818281938120E030E0C1
:101A40004AEF54E40E945D26DC01CB01F80180835B
:101A50009183A283B383CE01875A9F4F11E0FC018B
:101A6000608171818281938120E030E040E85FE312
:101A70000E94952888230CF010E0112349F0CE0134
:101A8000835A9F4F21E030E0FC013183208374C0F2
:101A9000CE01875A9F4F11E0FC01608171818281E4
:101AA000938120E03FEF4FE757E40E943528181656
:101AB0000CF010E0112309F44DC0CE018B5A9F4F5A
:101AC000FC01608171818281938120E030E040E2FD
:101AD00051E40E945D26DC01CB018E01035A1F4FA9
:101AE000BC01CD010E948924DC01CB01F801918366
:101AF000808327C0CE01815A9F4F28EC30E0FC0143
:101B000031832083CE01815A9F4FFC0180819181D6
:101B10008C01C8010197F1F78C01CE01815A9F4FCA
:101B2000FC0111830083CE01835A9F4F9E01235AEB
:101B30003F4FF9012081318121503040FC01318338
:101B40002083CE01835A9F4FFC01808191810097B1
:101B500089F658C08E01035A1F4FCE01875A9F4FF6
:101B6000FC0160817181828193810E948924DC0162
:101B7000CB01F80191838083CE018F599F4F9E0145
:101B8000235A3F4FF90120813181FC0131832083A9
:101B9000CE018F599F4FFC01808191818C01C8013A
:101BA0000197F1F78C01CE018F599F4FFC011183F2
:101BB000008328C08E010C5A1F4FCE01805B9F4FBF
:101BC000FC0160817181828193810E948924DC0102
:101BD000CB01F8018083CE018D599F4F9E012C5A75
:101BE0003F4FF9012081FC012083CE018D599F4F89
:101BF000FC018081182F1A95F1F7CE018D599F4F66
:101C0000FC01108385E390E025E330E0F9012081B9
:101C1000277FFC0120839E012C593F4F80E090E0FC
:101C2000A0E8BFE3F90180839183A283B3838E018F
:101C300008591F4FCE018C599F4FFC016081718163
:101C4000828193812BEA3AEA4AE250E40E945D26BF
:101C5000DC01CB01F80180839183A283B383CE01A1
:101C600088599F4F11E0FC016081718182819381CD
:101C700020E030E040E85FE30E94952888230CF0E4
:101C800010E0112339F0CE0184599F4F21E0FC016F
:101C9000208305C1CE0188599F4F11E0FC0160816E
:101CA00071818281938120E030E04FE753E40E940C
:101CB000352818160CF010E0112309F4DFC0CE010E
:101CC0008C599F4FFC01608171818281938120E05A
:101CD00030E04AE754E40E945727DC01CB019E0123
:101CE00023593F4FF90180839183A283B3838E01EF
:101CF0000F581F4FCE0183599F4FFC0160817181A6
:101D00008281938120E030E04AEF54E40E945D2616
:101D1000DC01CB01F80180839183A283B383CE01E0
:101D20008F589F4F11E0FC01608171818281938106
:101D300020E030E040E85FE30E94952888230CF023
:101D400010E0112349F0CE018B589F4F21E030E085
:101D5000FC013183208374C0CE018F589F4F11E066
:101D6000FC01608171818281938120E03FEF4FE728
:101D700057E40E94352818160CF010E0112309F4DE
:101D80004DC0CE0183599F4FFC01608171818281DA
:101D9000938120E030E040E251E40E945D26DC01C6
:101DA000CB018E010B581F4FBC01CD010E9489242D
:101DB000DC01CB01F8019183808327C0CE018958D3
:101DC0009F4F28EC30E0FC0131832083CE018958FD
:101DD0009F4FFC01808191818C01C8010197F1F72F
:101DE0008C01CE0189589F4FFC0111830083CE01E5
:101DF0008B589F4F9E012B583F4FF9012081318115
:101E000021503040FC0131832083CE018B589F4FFD
:101E1000FC0180819181009789F658C08E010B5892
:101E20001F4FCE018F589F4FFC01608171818281CD
:101E300093810E948924DC01CB01F8019183808386
:101E4000CE0187589F4F9E012B583F4FF9012081AB
:101E50003181FC0131832083CE0187589F4FFC01E3
:101E6000808191818C01C8010197F1F78C01CE012D
:101E700087589F4FFC011183008328C08E010459AD
:101E80001F4FCE0188599F4FFC0160817181828173
:101E900093810E948924DC01CB01F8018083CE016B
:101EA00085589F4F9E0124593F4FF9012081FC0125
:101EB0002083CE0185589F4FFC018081182F1A95F1
:101EC000F1F7CE0185589F4FFC0110830E94740FDB
:101ED000C358DF4F0FB6F894DEBF0FBECDBFCF9112
:101EE000DF911F910F9108950F931F93DF93CF936D
:101EF000CDB7DEB768970FB6F894DEBF0FBECDBF83
:101F000080E090E0A8E4B3E489839A83AB83BC8348
:101F100069817A818B819C812BEA3AEA4AE250E41A
:101F20000E945D26DC01CB018D839E83AF83B88741
:101F300011E06D817E818F81988520E030E040E85E
:101F40005FE30E94952888230CF010E0112319F01C
:101F500081E08987A3C011E06D817E818F819885A2
:101F600020E030E04FE753E40E94352818160CF0CB
:101F700010E0112309F489C069817A818B819C81E9
:101F800020E030E04AE754E40E945727DC01CB010F
:101F90008A879B87AC87BD876A857B858C859D8575
:101FA00020E030E04AEF54E40E945D26DC01CB01E2
:101FB0008E879F87A88BB98B11E06E857F85888976
:101FC000998920E030E040E85FE30E94952888236B
:101FD0000CF010E0112329F081E090E09B8B8A8BBC
:101FE00046C011E06E857F858889998920E03FEFA2
:101FF0004FE757E40E94352818160CF010E0112323
:1020000061F16A857B858C859D8520E030E040E22A
:1020100051E40E945D26DC01CB01BC01CD010E9490
:102020008924DC01CB019B8B8A8B12C088EC90E069
:102030009D8B8C8B8C899D898C01C8010197F1F750
:102040008C011D8B0C8B8A899B8901979B8B8A8BBA
:102050008A899B89009751F728C06E857F8588897A
:1020600099890E948924DC01CB019B8B8A8B8A8908
:102070009B899F8B8E8B8E899F898C01C8010197CC
:10208000F1F78C011F8B0E8B10C06D817E818F81CB
:1020900098850E948924DC01CB0189878985888FF6
:1020A000888D182F1A95F1F7188F68960FB6F89447
:1020B000DEBF0FBECDBFCF91DF911F910F9108956D
:1020C0000F931F93DF93CF93CDB7DEB7C755D040A3
:1020D0000FB6F894DEBF0FBECDBF9E01295A3F4F09
:1020E000F901808380E090E0A0EFB1E489839A83D6
:1020F000AB83BC8369817A818B819C8120E030E055
:102100004AEF54E40E945D26DC01CB018D839E835F
:10211000AF83B88711E06D817E818F81988520E043
:1021200030E040E85FE30E94952888230CF010E03F
:10213000112329F081E090E09A87898746C011E059
:102140006D817E818F81988520E03FEF4FE757E4D6
:102150000E94352818160CF010E0112361F16981F6
:102160007A818B819C8120E030E040E251E40E9442
:102170005D26DC01CB01BC01CD010E948924DC017C
:10218000CB019A87898712C088EC90E09C878B8767
:102190008B859C858C01C8010197F1F78C011C8708
:1021A0000B8789859A8501979A87898789859A857A
:1021B000009751F717C06D817E818F8198850E94AD
:1021C0008924DC01CB019A87898789859A859E8736
:1021D0008D878D859E858C01F8013197F1F78F01F0
:1021E0001E870D8784E390E024E330E0F90120812D
:1021F000206FFC01208384E390E024E330E0F901C8
:1022000020812860FC01208384E390E024E330E017
:10221000F90120812460FC01208382E290E022E227
:1022200030E0F90120812260FC01208385E390E009
:1022300025E330E0F90120812F70FC01208385E344
:1022400090E025E330E0F9012081277FFC01208325
:1022500083E290E023E230E0F90120812D7FFC0150
:10226000208385E390E025E330E0F90120812B7F96
:10227000FC0120838AE999E9A9E9BEE38F87988B5D
:10228000A98BBA8B6F85788989899A892BEA3AEA72
:102290004AE250E40E945D26DC01CB018B8B9C8BD3
:1022A000AD8BBE8B11E06B897C898D899E8920E086
:1022B00030E040E85FE30E94952888230CF010E0AE
:1022C000112319F081E08F8BA3C011E06B897C8909
:1022D0008D899E8920E030E04FE753E40E94352845
:1022E00018160CF010E0112309F489C06F85788965
:1022F00089899A8920E030E04AE754E40E94572710
:10230000DC01CB01888F998FAA8FBB8F688D798D67
:102310008A8D9B8D20E030E04AEF54E40E945D26D8
:10232000DC01CB018C8F9D8FAE8FBF8F11E06C8D48
:102330007D8D8E8D9F8D20E030E040E85FE30E9430
:10234000952888230CF010E0112329F081E090E01B
:1023500099A388A346C011E06C8D7D8D8E8D9F8DD5
:1023600020E03FEF4FE757E40E94352818160CF0A5
:1023700010E0112361F1688D798D8A8D9B8D20E0AD
:1023800030E040E251E40E945D26DC01CB01BC015B
:10239000CD010E948924DC01CB0199A388A312C03E
:1023A00088EC90E09BA38AA38AA19BA18C01C80121
:1023B0000197F1F78C011BA30AA388A199A10197AA
:1023C00099A388A388A199A1009751F728C06C8D83
:1023D0007D8D8E8D9F8D0E948924DC01CB0199A378
:1023E00088A388A199A19DA38CA38CA19DA18C01F8
:1023F000F8013197F1F78F011DA30CA310C06B8971
:102400007C898D899E890E948924DC01CB018F8B78
:102410008F898EA38EA1182F1A95F1F71EA385E33D
:1024200090E025E330E0F90120812860FC01208361
:1024300085E390E025E330E0F90120812062FC0192
:10244000208380E090E0A0E8BFE38FA398A7A9A72E
:10245000BAA76FA178A589A59AA52BEA3AEA4AE21C
:1024600050E40E945D26DC01CB018BA79CA7ADA7A1
:10247000BEA711E06BA57CA58DA59EA520E030E050
:1024800040E85FE30E94952888230CF010E01123B8
:1024900019F081E08FA7A3C011E06BA57CA58DA5E5
:1024A0009EA520E030E04FE753E40E94352818163F
:1024B0000CF010E0112309F489C06FA178A589A55B
:1024C0009AA520E030E04AE754E40E945727DC0157
:1024D000CB0188AB99ABAAABBBAB68A979A98AA998
:1024E0009BA920E030E04AEF54E40E945D26DC0125
:1024F000CB018CAB9DABAEABBFAB11E06CA97DA9A2
:102500008EA99FA920E030E040E85FE30E94952873
:1025100088230CF010E0112329F081E090E099AFBE
:1025200088AF46C011E06CA97DA98EA99FA920E0C3
:102530003FEF4FE757E40E94352818160CF010E0E3
:10254000112361F168A979A98AA99BA920E030E04B
:1025500040E251E40E945D26DC01CB01BC01CD01CB
:102560000E948924DC01CB0199AF88AF12C088ECAE
:1025700090E09BAF8AAF8AAD9BAD8C01C8010197FB
:10258000F1F78C011BAF0AAF88AD99AD019799AFF8
:1025900088AF88AD99AD009751F728C06CA97DA987
:1025A0008EA99FA90E948924DC01CB0199AF88AF35
:1025B00088AD99AD9DAF8CAF8CAD9DAD8C01F80110
:1025C0003197F1F78F011DAF0CAF10C06BA57CA543
:1025D0008DA59EA50E948924DC01CB018FA78FA524
:1025E0008EAF8EAD182F1A95F1F71EAF85E390E0F0
:1025F00025E330E0F9012081277FFC0120839E0143
:10260000215C3F4F80E090E0A0E8BFE3F9018083C8
:102610009183A283B3838E010D5B1F4FCE01CF96B2
:10262000FC0160817181828193812BEA3AEA4AE25E
:1026300050E40E945D26DC01CB01F8018083918388
:10264000A283B383CE018D5B9F4F11E0FC016081BB
:1026500071818281938120E030E040E85FE30E9455
:10266000952888230CF010E0112339F0CE01895B06
:102670009F4F21E0FC01208304C1CE018D5B9F4F61
:1026800011E0FC01608171818281938120E030E062
:102690004FE753E40E94352818160CF010E0112380
:1026A00009F4DEC0CE01CF96FC0160817181828188
:1026B000938120E030E04AE754E40E945727DC0190
:1026C000CB019E01285B3F4FF90180839183A28358
:1026D000B3838E01045B1F4FCE01885B9F4FFC01CB
:1026E000608171818281938120E030E04AEF54E47F
:1026F0000E945D26DC01CB01F80180839183A283D7
:10270000B383CE01845B9F4F11E0FC016081718136
:102710008281938120E030E040E85FE30E949528C9
:1027200088230CF010E0112349F0CE01805B9F4F0D
:1027300021E030E0FC013183208374C0CE01845B52
:102740009F4F11E0FC01608171818281938120E0C3
:102750003FEF4FE757E40E94352818160CF010E0C1
:10276000112309F44DC0CE01885B9F4FFC016081AD
:1027700071818281938120E030E040E251E40E9447
:102780005D26DC01CB018E01005B1F4FBC01CD013A
:102790000E948924DC01CB01F8019183808327C04A
:1027A000CE018E5A9F4F28EC30E0FC01318320830C
:1027B000CE018E5A9F4FFC01808191818C01C8010E
:1027C0000197F1F78C01CE018E5A9F4FFC011183C6
:1027D0000083CE01805B9F4F9E01205B3F4FF9013C
:1027E0002081318121503040FC0131832083CE0192
:1027F000805B9F4FFC0180819181009789F658C0D2
:102800008E01005B1F4FCE01845B9F4FFC016081F6
:102810007181828193810E948924DC01CB01F801BE
:1028200091838083CE018C5A9F4F9E01205B3F4F46
:10283000F90120813181FC0131832083CE018C5A42
:102840009F4FFC01808191818C01C8010197F1F7B4
:102850008C01CE018C5A9F4FFC011183008328C04C
:102860008E01095B1F4FCE018D5B9F4FFC01608184
:102870007181828193810E948924DC01CB01F8015E
:102880008083CE018A5A9F4F9E01295B3F4FF901F9
:102890002081FC012083CE018A5A9F4FFC01808158
:1028A000182F1A95F1F7CE018A5A9F4FFC01108319
:1028B0000E94740FCE01895A9F4FFC0180818C6069
:1028C00060E00E94550988E260E00E945509C95AFB
:1028D000DF4F0FB6F894DEBF0FBECDBFCF91DF91B3
:1028E0001F910F910895DF93CF9300D0CDB7DEB73E
:1028F0009A8389830CC089819A81FC01808161E07F
:102900000E94550989819A8101969A8389838981D8
:102910009A81FC018081882371F70F900F90CF91ED
:10292000DF910895DF93CF93CDB7DEB72D970FB624
:10293000F894DEBF0FBECDBF9B878A877D876C87EB
:1029400025E0CE010596FC01322F11923A95E9F768
:1029500084E090E09A8389831C821B828A859B8510
:10296000992364F48DE261E00E9455098A859B8574
:10297000909581959F4F9B878A8725C08BE261E068
:102980000E94550920C08A859B852AE030E0B90164
:102990000E94612B482F9E012B5F3F4F89819A81B6
:1029A000820F931FFC0140838A859B852AE030E0DB
:1029B000B9010E94612B9B013B872A8789819A81FB
:1029C00001979A8389838A859B850097E1F68C8598
:1029D0009D85FFEF8F3F9F0791F405C08B819C8100
:1029E00001969C838B839E012B5F3F4F8B819C8143
:1029F000820F931FFC018081882381F30AC025E0A8
:102A000030E08C859D85A901481B590BCA019C8328
:102A10008B838B819C819A83898312C09E012B5F5B
:102A20003F4F89819A81820F931FFC018081805DD5
:102A300061E00E94550989819A8101969A83898370
:102A400089819A81853091054CF32D960FB6F894C3
:102A5000DEBF0FBECDBFCF91DF910895DF93CF933F
:102A600000D0CDB7DEB789836A838A81882F90E052
:102A70008130910589F0823091051CF4009741F076
:102A800017C08230910561F08330910569F010C064
:102A90008981805889830CC089818054898308C0CA
:102AA00089818C56898304C089818C528983000076
:102AB000898160E00E9455090F900F90CF91DF91BE
:102AC00008951F920F920FB60F9200905B000F9225
:102AD00011242F933F938F939F93EF93FF93DF9353
:102AE000CF930F92CDB7DEB785E690E025E630E0D4
:102AF000F90120812095FC0120838CE290E0FC010B
:102B0000808189838981843271F4109281031092CB
:102B10008203109283031092840310928503109213
:102B200086031092870380918103853088F4898120
:102B3000843271F080918103882F90E083559C4FFF
:102B40002981FC012083809181038F5F8093810321
:102B50008091AD03873409F0B6C08091AE03803513
:102B600009F0B1C08091AF03823509F0ACC080910B
:102B7000B0038D3409F0A7C08091B103833409F00C
:102B8000A2C080918103853008F49DC089818C3278
:102B900029F4809187038F5F809387038091870357
:102BA000813091F489818C3279F080918403882F6F
:102BB00090E0805A9E4F2981FC01208380918403FC
:102BC0008F5F809384037FC080918703823039F4C4
:102BD00089818C3221F089818093740174C0809145
:102BE0008703833091F489818C3279F0809182035C
:102BF000882F90E0875B9E4F2981FC012083809184
:102C000082038F5F809382035EC08091870384304C
:102C100039F489818C3221F089818093750153C008
:102C200080918703853091F489818C3279F080918D
:102C30008303882F90E08C5A9E4F2981FC012083CA
:102C4000809183038F5F809383033DC080918703CE
:102C5000863039F489818C3221F089818093760124
:102C600032C080918703873091F489818C3279F06A
:102C700080918603882F90E081599E4F2981FC0125
:102C80002083809186038F5F809386031CC0809190
:102C90008703883019F489818C32A9F480918703E5
:102CA000893089F489818C3271F080918503882F75
:102CB00090E087599E4F2981FC01208380918503F4
:102CC0008F5F809385030F90CF91DF91FF91EF91FC
:102CD0009F918F913F912F910F9000925B000F90E9
:102CE0000FBE0F901F9018950F931F93DF93CF93F4
:102CF000CDB7DEB7C25DD0400FB6F894DEBF0FBED1
:102D0000CDBF0E94A90580E090E0A8ECB2E48983E1
:102D10009A83AB83BC8369817A818B819C8120E01B
:102D200030E04AE755E40E945D26DC01CB018D834B
:102D30009E83AF83B88711E06D817E818F819885F6
:102D400020E030E040E85FE30E94952888230CF003
:102D500010E0112329F081E090E09A87898746C02E
:102D600011E06D817E818F81988520E03FEF4FE7F4
:102D700057E40E94352818160CF010E0112361F179
:102D800069817A818B819C8120E030E040E251E4CE
:102D90000E945D26DC01CB01BC01CD010E9489248B
:102DA000DC01CB019A87898712C080E991E09C877A
:102DB0008B878B859C858C01C8010197F1F78C016D
:102DC0001C870B8789859A8501979A8789878985CA
:102DD0009A85009751F717C06D817E818F81988504
:102DE0000E948924DC01CB019A87898789859A858D
:102DF0009E878D878D859E858C01F8013197F1F72F
:102E00008F011E870D8780E00E94601080E090E0B7
:102E1000A8E4B2E48F87988BA98BBA8B6F857889E9
:102E200089899A8920E030E04AE755E40E945D26CE
:102E3000DC01CB018B8B9C8BAD8BBE8B11E06B8946
:102E40007C898D899E8920E030E040E85FE30E9424
:102E5000952888230CF010E0112329F081E090E000
:102E6000988F8F8B46C011E06B897C898D899E89F4
:102E700020E03FEF4FE757E40E94352818160CF08A
:102E800010E0112361F16F85788989899A8920E0A2
:102E900030E040E251E40E945D26DC01CB01BC0140
:102EA000CD010E948924DC01CB01988F8F8B12C049
:102EB00080E991E09A8F898F898D9A8D8C01C80164
:102EC0000197F1F78C011A8F098F8F89988D0197DF
:102ED000988F8F8B8F89988D009751F717C06B89CA
:102EE0007C898D899E890E948924DC01CB01988F81
:102EF0008F8B8F89988D9C8F8B8F8B8D9C8D8C0168
:102F0000F8013197F1F78F011C8F0B8F81E060E0A2
:102F10000E94550980E090E0A0E2B1E48D8F9E8F81
:102F2000AF8FB8A36D8D7E8D8F8D98A120E030E09E
:102F30004AE755E40E945D26DC01CB0189A39AA3F0
:102F4000ABA3BCA311E069A17AA18BA19CA120E055
:102F500030E040E85FE30E94952888230CF010E001
:102F6000112329F081E090E09EA38DA346C011E0DB
:102F700069A17AA18BA19CA120E03FEF4FE757E424
:102F80000E94352818160CF010E0112361F16D8DA8
:102F90007E8D8F8D98A120E030E040E251E40E94C8
:102FA0005D26DC01CB01BC01CD010E948924DC013E
:102FB000CB019EA38DA312C080E991E098A78FA3B7
:102FC0008FA198A58C01C8010197F1F78C0118A772
:102FD0000FA38DA19EA101979EA38DA38DA19EA15C
:102FE000009751F717C069A17AA18BA19CA10E94FB
:102FF0008924DC01CB019EA38DA38DA19EA19AA75C
:1030000089A789A59AA58C01F8013197F1F78F015D
:103010001AA709A70E9426230E94522384E690E063
:1030200024E630E0F90120812160FC01208384E660
:1030300090E024E630E0F90120812260FC01208349
:1030400084E690E024E630E0F90120812460FC0170
:10305000208384E690E024E630E0F90120812860B6
:10306000FC012083789480E090E0A8E4B2E48BA790
:103070009CA7ADA7BEA76BA57CA58DA59EA520E0AE
:1030800030E04AE755E40E945D26DC01CB018FA7C2
:1030900098ABA9ABBAAB11E06FA578A989A99AA999
:1030A00020E030E040E85FE30E94952888230CF0A0
:1030B00010E0112329F081E090E09CAB8BAB46C07F
:1030C00011E06FA578A989A99AA920E03FEF4FE701
:1030D00057E40E94352818160CF010E0112361F116
:1030E0006BA57CA58DA59EA520E030E040E251E4D3
:1030F0000E945D26DC01CB01BC01CD010E94892428
:10310000DC01CB019CAB8BAB12C080E991E09EABA4
:103110008DAB8DA99EA98C01C8010197F1F78C0197
:103120001EAB0DAB8BA99CA901979CAB8BAB8BA95C
:103130009CA9009751F717C06FA578A989A99AA9EA
:103140000E948924DC01CB019CAB8BAB8BA99CA991
:1031500098AF8FAB8FA998AD8C01F8013197F1F73B
:103160008F0118AF0FAB80E060E00E942E1587E75B
:1031700091E00E94731480E090E0AAEFB3E489AF7D
:103180009AAFABAFBCAF69AD7AAD8BAD9CAD20E073
:1031900030E04AE755E40E945D26DC01CB019E0148
:1031A000235C3F4FF90180839183A283B38311E0B5
:1031B000CE01CD96FC01608171818281938120E0F6
:1031C00030E040E85FE30E94952888230CF010E08F
:1031D000112349F0CE018F5B9F4F21E030E0FC01CD
:1031E000318320836EC011E0CE01CD96FC01608159
:1031F00071818281938120E03FEF4FE757E40E9485
:10320000352818160CF010E0112309F449C069ADF7
:103210007AAD8BAD9CAD20E030E040E251E40E94FD
:103220005D26DC01CB018E010F5B1F4FBC01CD0180
:103230000E948924DC01CB01F8019183808327C09F
:10324000CE018D5B9F4F20E931E0FC01318320836B
:10325000CE018D5B9F4FFC01808191818C01C80163
:103260000197F1F78C01CE018D5B9F4FFC0111831B
:103270000083CE018F5B9F4F9E012F5B3F4FF90173
:103280002081318121503040FC0131832083CE01E7
:103290008F5B9F4FFC0180819181009789F62EC042
:1032A0008E010F5B1F4FCE01CD96FC0160817181B5
:1032B000828193810E948924DC01CB01F8019183F2
:1032C0008083CE018B5B9F4F9E012F5B3F4FF901A7
:1032D00020813181FC0131832083CE018B5B9F4FA4
:1032E000FC01808191818C01C8010197F1F78C016B
:1032F000CE018B5B9F4FFC011183008381E060E076
:103300000E9455099E01295B3F4F80E090E0A0E2BA
:10331000B1E4F90180839183A283B3838E01055BBD
:103320001F4FCE01895B9F4FFC01608171818281BB
:10333000938120E030E04AE755E40E945D26DC01FD
:10334000CB01F80180839183A283B383CE01855B97
:103350009F4F11E0FC01608171818281938120E0A7
:1033600030E040E85FE30E94952888230CF010E0ED
:10337000112349F0CE01815B9F4F21E030E0FC0139
:103380003183208374C0CE01855B9F4F11E0FC0127
:10339000608171818281938120E03FEF4FE757E4A4
:1033A0000E94352818160CF010E0112309F44DC0C6
:1033B000CE01895B9F4FFC01608171818281938185
:1033C00020E030E040E251E40E945D26DC01CB01C8
:1033D0008E01015B1F4FBC01CD010E948924DC01DD
:1033E000CB01F8019183808327C0CE018F5A9F4F74
:1033F00020E931E0FC0131832083CE018F5A9F4FB9
:10340000FC01808191818C01C8010197F1F78C0149
:10341000CE018F5A9F4FFC0111830083CE01815B47
:103420009F4F9E01215B3F4FF90120813181215047
:103430003040FC0131832083CE01815B9F4FFC0132
:1034400080819181009789F62FC08E01015B1F4F0B
:10345000CE01855B9F4FFC016081718182819381E8
:103460000E948924DC01CB01F80191838083CE0185
:103470008D5A9F4F9E01215B3F4FF9012081318181
:10348000FC0131832083CE018D5A9F4FFC01808146
:1034900091818C01C8010197F1F78C01CE018D5A01
:1034A0009F4FFC011183008380E060E00E942E1595
:1034B0008BE791E00E9473149E012B5A3F4F80E0EE
:1034C00090E0A8ECB2E4F90180839183A283B383F6
:1034D0008E01075A1F4FCE018B5A9F4FFC0160810E
:1034E00071818281938120E030E04AE755E40E94B7
:1034F0005D26DC01CB01F80180839183A283B38335
:10350000CE01875A9F4F11E0FC0160817181828159
:10351000938120E030E040E85FE30E949528882313
:103520000CF010E0112349F0CE01835A9F4F21E0A7
:1035300030E0FC013183208374C0CE01875A9F4F55
:1035400011E0FC01608171818281938120E03FEF75
:103550004FE757E40E94352818160CF010E01123AD
:1035600009F44DC0CE018B5A9F4FFC0160817181DF
:103570008281938120E030E040E251E40E945D26A8
:10358000DC01CB018E01035A1F4FBC01CD010E940B
:103590008924DC01CB01F8019183808327C0CE010F
:1035A000815A9F4F20E931E0FC0131832083CE0115
:1035B000815A9F4FFC01808191818C01C801019744
:1035C000F1F78C01CE01815A9F4FFC0111830083DA
:1035D000CE01835A9F4F9E01235A3F4FF90120810C
:1035E000318121503040FC0131832083CE01835A48
:1035F0009F4FFC0180819181009789F62FC08E0139
:10360000035A1F4FCE01875A9F4FFC016081718181
:10361000828193810E948924DC01CB01F80191838E
:103620008083CE018F599F4F9E01235A3F4FF9014E
:1036300020813181FC0131832083CE018F599F4F3E
:10364000FC01808191818C01C8010197F1F78C0107
:10365000CE018F599F4FFC011183008381E060E010
:103660000E9455099E012D593F4F80E090E0A8EC43
:10367000B2E4F90180839183A283B3838E01095957
:103680001F4FCE018D599F4FFC0160817181828156
:10369000938120E030E04AE755E40E945D26DC019A
:1036A000CB01F80180839183A283B383CE01895932
:1036B0009F4F11E0FC01608171818281938120E044
:1036C00030E040E85FE30E94952888230CF010E08A
:1036D000112349F0CE0185599F4F21E030E0FC01D4
:1036E0003183208374C0CE0189599F4F11E0FC01C2
:1036F000608171818281938120E03FEF4FE757E441
:103700000E94352818160CF010E0112309F44DC062
:10371000CE018D599F4FFC0160817181828193811F
:1037200020E030E040E251E40E945D26DC01CB0164
:103730008E0105591F4FBC01CD010E948924DC0177
:10374000CB01F8019183808327C0CE0183599F4F1D
:1037500020E931E0FC0131832083CE0183599F4F62
:10376000FC01808191818C01C8010197F1F78C01E6
:10377000CE0183599F4FFC0111830083CE018559EF
:103780009F4F9E0125593F4FF901208131812150E2
:103790003040FC0131832083CE0185599F4FFC01CD
:1037A00080819181009789F62FC08E0105591F4FA6
:1037B000CE0189599F4FFC01608171818281938183
:1037C0000E948924DC01CB01F80191838083CE0122
:1037D00081599F4F9E0125593F4FF9012081318129
:1037E000FC0131832083CE0181599F4FFC018081F0
:1037F00091818C01C8010197F1F78C01CE018159AB
:103800009F4FFC011183008380E060E00E942E1531
:10381000809114039091150365E070E00E9492146A
:103820008091140390911503F7E0813D9F074CF5BB
:10383000809114039091150328EF803392070CF1C7
:103840008091120390911303E7E0813D9E07CCF431
:103850008091120390911303F8EF80339F078CF04F
:10386000809116039091170327E0813D92074CF455
:103870008091160390911703E8EF80339E070CF0B8
:103880005AC49E012F583F4F80E090E0A8E4B2E474
:10389000F90180839183A283B3838E010B581F4F5C
:1038A000CE018F589F4FFC0160817181828193818D
:1038B00020E030E04AE755E40E945D26DC01CB01C0
:1038C000F80180839183A283B383CE018B589F4FED
:1038D00011E0FC01608171818281938120E030E000
:1038E00040E85FE30E94952888230CF010E0112344
:1038F00049F0CE0187589F4F21E030E0FC01318331
:10390000208374C0CE018B589F4F11E0FC01608171
:1039100071818281938120E03FEF4FE757E40E945D
:10392000352818160CF010E0112309F44DC0CE0113
:103930008F589F4FFC01608171818281938120E0CB
:1039400030E040E251E40E945D26DC01CB018E01B3
:1039500007581F4FBC01CD010E948924DC01CB0117
:10396000F8019183808327C0CE0185589F4F20E9BD
:1039700031E0FC0131832083CE0185589F4FFC014B
:10398000808191818C01C8010197F1F78C01CE01F2
:1039900085589F4FFC0111830083CE0187589F4FAC
:1039A0009E0127583F4FF90120813181215030403D
:1039B000FC0131832083CE0187589F4FFC01808119
:1039C0009181009789F62FC08E0107581F4FCE01B5
:1039D0008B589F4FFC0160817181828193810E948D
:1039E0008924DC01CB01F80191838083CE018358C7
:1039F0009F4F9E0127583F4FF90120813181FC01E3
:103A000031832083CE0183589F4FFC0180819181B7
:103A10008C01C8010197F1F78C01CE0183589F4FAB
:103A2000FC011183008381E060E00E9455099E0142
:103A300021583F4F80E090E0ACE8B2E4F901808388
:103A40009183A283B3838E010D571F4FCE018158FE
:103A50009F4FFC01608171818281938120E030E081
:103A60004AE755E40E945D26DC01CB01F801808322
:103A70009183A283B383CE018D579F4F11E0FC0148
:103A8000608171818281938120E030E040E85FE3D2
:103A90000E94952888230CF010E0112349F0CE01F4
:103AA00089579F4F21E030E0FC013183208374C0AF
:103AB000CE018D579F4F11E0FC01608171818281A1
:103AC000938120E03FEF4FE757E40E943528181616
:103AD0000CF010E0112309F44DC0CE0181589F4F26
:103AE000FC01608171818281938120E030E040E2BD
:103AF00051E40E945D26DC01CB018E0109571F4F66
:103B0000BC01CD010E948924DC01CB01F801918325
:103B1000808327C0CE0187579F4F20E931E0FC0109
:103B200031832083CE0187579F4FFC018081918193
:103B30008C01C8010197F1F78C01CE0187579F4F87
:103B4000FC0111830083CE0189579F4F9E012957A5
:103B50003F4FF9012081318121503040FC013183F8
:103B60002083CE0189579F4FFC018081918100976E
:103B700089F62FC08E0109571F4FCE018D579F4FD9
:103B8000FC0160817181828193810E948924DC0122
:103B9000CB01F80191838083CE0185579F4F9E0111
:103BA00029573F4FF90120813181FC013183208366
:103BB000CE0185579F4FFC01808191818C01C80106
:103BC0000197F1F78C01CE0185579F4FFC011183BE
:103BD000008380E061E00E942E1584E891E00E945D
:103BE000731485E690E025E630E0F9012081246039
:103BF000FC01208385E690E025E630E0F901208194
:103C00002860FC01208380E060E00E942E1585E999
:103C100091E00E9473140000809174018134E1F7F7
:103C200081E060E00E9455099E0123573F4F80E0EC
:103C300090E0A8ECB2E4F90180839183A283B3837E
:103C40008E010F561F4FCE0183579F4FFC0160819D
:103C500071818281938120E030E04AE755E40E943F
:103C60005D26DC01CB01F80180839183A283B383BD
:103C7000CE018F569F4F11E0FC01608171818281DE
:103C8000938120E030E040E85FE30E94952888239C
:103C90000CF010E0112349F0CE018B569F4F21E02C
:103CA00030E0FC013183208374C0CE018F569F4FDA
:103CB00011E0FC01608171818281938120E03FEFFE
:103CC0004FE757E40E94352818160CF010E0112336
:103CD00009F44DC0CE0183579F4FFC016081718173
:103CE0008281938120E030E040E251E40E945D2631
:103CF000DC01CB018E010B561F4FBC01CD010E9490
:103D00008924DC01CB01F8019183808327C0CE0197
:103D100089569F4F20E931E0FC0131832083CE0199
:103D200089569F4FFC01808191818C01C8010197C8
:103D3000F1F78C01CE0189569F4FFC01118300835E
:103D4000CE018B569F4F9E012B563F4FF90120818C
:103D5000318121503040FC0131832083CE018B56CC
:103D60009F4FFC0180819181009789F62FC08E01C1
:103D70000B561F4FCE018F569F4FFC016081718102
:103D8000828193810E948924DC01CB01F801918317
:103D90008083CE0187569F4F9E012B563F4FF901DE
:103DA00020813181FC0131832083CE0187569F4FD2
:103DB000FC01808191818C01C8010197F1F78C0190
:103DC000CE0187569F4FFC011183008380E060E0A5
:103DD0000E942E1585EA91E00E9473149E012556DB
:103DE0003F4F80E090E0AAEFB4E4F9018083918333
:103DF000A283B3838E0101561F4FCE0185569F4F7C
:103E0000FC01608171818281938120E030E04AE78A
:103E100055E40E945D26DC01CB01F801808391838B
:103E2000A283B383CE0181569F4F11E0FC016081D4
:103E300071818281938120E030E040E85FE30E945D
:103E4000952888230CF010E0112349F0CE018D5500
:103E50009F4F21E030E0FC013183208374C0CE010C
:103E600081569F4F11E0FC016081718182819381B5
:103E700020E03FEF4FE757E40E94352818160CF07A
:103E800010E0112309F44DC0CE0185569F4FFC016F
:103E9000608171818281938120E030E040E251E4D1
:103EA0000E945D26DC01CB018E010D551F4FBC0128
:103EB000CD010E948924DC01CB01F801918380832C
:103EC00027C0CE018B559F4F20E931E0FC013183A3
:103ED0002083CE018B559F4FFC01808191818C0105
:103EE000C8010197F1F78C01CE018B559F4FFC0162
:103EF00011830083CE018D559F4F9E012D553F4F5D
:103F0000F9012081318121503040FC01318320832F
:103F1000CE018D559F4FFC0180819181009789F6DC
:103F20002FC08E010D551F4FCE0181569F4FFC01B2
:103F300060817181828193810E948924DC01CB019F
:103F4000F80191838083CE0189559F4F9E012D55A5
:103F50003F4FF90120813181FC0131832083CE0163
:103F600089559F4FFC01808191818C01C801019787
:103F7000F1F78C01CE0189559F4FFC01118300831D
:103F800081E060E00E9455099E0127553F4F80E087
:103F900090E0A8ECB2E4F90180839183A283B3831B
:103FA0008E0103551F4FCE0187559F4FFC01608145
:103FB00071818281938120E030E04AE755E40E94DC
:103FC0005D26DC01CB01F80180839183A283B3835A
:103FD000CE0183559F4F11E0FC0160817181828188
:103FE000938120E030E040E85FE30E949528882339
:103FF0000CF010E0112349F0CE018F549F4F21E0C7
:1040000030E0FC013183208374C0CE0183559F4F83
:1040100011E0FC01608171818281938120E03FEF9A
:104020004FE757E40E94352818160CF010E01123D2
:1040300009F44DC0CE0187559F4FFC01608171810D
:104040008281938120E030E040E251E40E945D26CD
:10405000DC01CB018E010F541F4FBC01CD010E942A
:104060008924DC01CB01F8019183808327C0CE0134
:104070008D549F4F20E931E0FC0131832083CE0134
:104080008D549F4FFC01808191818C01C801019763
:10409000F1F78C01CE018D549F4FFC0111830083F9
:1040A000CE018F549F4F9E012F543F4FF901208125
:1040B000318121503040FC0131832083CE018F5467
:1040C0009F4FFC0180819181009789F62FC08E015E
:1040D0000F541F4FCE0183559F4FFC0160817181AA
:1040E000828193810E948924DC01CB01F8019183B4
:1040F0008083CE018B549F4F9E012F543F4FF90177
:1041000020813181FC0131832083CE018B549F4F6C
:10411000FC01808191818C01C8010197F1F78C012C
:10412000CE018B549F4FFC011183008383EB91E000
:104130000E946C2269CB9E0129543F4F80E090E0A1
:10414000ACE8B2E4F90180839183A283B3838E014A
:1041500005541F4FCE0189549F4FFC01608171812E
:104160008281938120E030E04AE755E40E945D2699
:10417000DC01CB01F80180839183A283B383CE015C
:1041800085549F4F11E0FC01608171818281938190
:1041900020E030E040E85FE30E94952888230CF09F
:1041A00010E0112349F0CE0181549F4F21E030E00F
:1041B000FC013183208374C0CE0185549F4F11E0F0
:1041C000FC01608171818281938120E03FEF4FE7A4
:1041D00057E40E94352818160CF010E0112309F45A
:1041E0004DC0CE0189549F4FFC0160817181828155
:1041F000938120E030E040E251E40E945D26DC0142
:10420000CB018E0101541F4FBC01CD010E948924B6
:10421000DC01CB01F8019183808327C0CE018F534D
:104220009F4F20E931E0FC0131832083CE018F5381
:104230009F4FFC01808191818C01C8010197F1F7AA
:104240008C01CE018F539F4FFC0111830083CE015F
:1042500081549F4F9E0121543F4FF90120813181AC
:1042600021503040FC0131832083CE0181549F4F87
:10427000FC0180819181009789F62FC08E01015445
:104280001F4FCE0185549F4FFC0160817181828157
:1042900093810E948924DC01CB01F8019183808302
:1042A000CE018D539F4F9E0121543F4FF901208134
:1042B0003181FC0131832083CE018D539F4FFC015E
:1042C000808191818C01C8010197F1F78C01CE01A9
:1042D0008D539F4FFC011183008380E061E00E94B9
:1042E0002E158EEB91E00E94731485E690E025E692
:1042F00030E0F90120812260FC01208385E690E016
:1043000025E630E0F90120812460FC0120839E0134
:104310002B533F4F80E090E0A8E4B2E4F9018083A2
:104320009183A283B3838E0107531F4FCE018B531A
:104330009F4FFC01608171818281938120E030E098
:104340004AE755E40E945D26DC01CB01F801808339
:104350009183A283B383CE0187539F4F11E0FC0169
:10436000608171818281938120E030E040E85FE3E9
:104370000E94952888230CF010E0112349F0CE010B
:1043800083539F4F21E030E0FC013183208374C0D0
:10439000CE0187539F4F11E0FC01608171818281C2
:1043A000938120E03FEF4FE757E40E94352818162D
:1043B0000CF010E0112309F44DC0CE018B539F4F38
:1043C000FC01608171818281938120E030E040E2D4
:1043D00051E40E945D26DC01CB018E0103531F4F87
:1043E000BC01CD010E948924DC01CB01F80191833D
:1043F000808327C0CE0181539F4F20E931E0FC012B
:1044000031832083CE0181539F4FFC0180819181B4
:104410008C01C8010197F1F78C01CE0181539F4FA8
:10442000FC0111830083CE0183539F4F9E012353D0
:104430003F4FF9012081318121503040FC0131830F
:104440002083CE0183539F4FFC018081918100978F
:1044500089F62FC08E0103531F4FCE0187539F4F04
:10446000FC0160817181828193810E948924DC0139
:10447000CB01F80191838083CE018F529F4F9E0123
:1044800023533F4FF90120813181FC013183208387
:10449000CE018F529F4FFC01808191818C01C80118
:1044A0000197F1F78C01CE018F529F4FFC011183D0
:1044B000008385E690E025E630E0F90120812D7F3C
:1044C000FC01208385E690E025E630E0F9012081BB
:1044D0002B7FFC01208398C9DF93CF9300D000D0BD
:1044E000CDB7DEB79C838B8385EC91E00E94D1230E
:1044F0008BE20E94982388EC91E00E94D1238DE307
:104500000E94982381E30E9498238DE00E949823C3
:104510000E946700813009F080C08DEC91E00E941C
:10452000D12382E20E9498230CC08B819C81FC01E4
:1045300020818B819C8101969C838B83822F0E949A
:1045400098238B819C81FC018081882371F782E212
:104550000E9498238DE00E94982300000E9414235B
:104560008E33E1F786ED91E00E94D1238DE00E9429
:1045700098238BEE91E00E94D1231A8219820DC0FC
:1045800089819A818C5A9E4FFC0180810E949823D8
:1045900089819A8101969A83898389819A818C3055
:1045A000910574F38DE00E94982382EF91E00E94C0
:1045B000D1231A8219820DC089819A81875B9E4F0F
:1045C000FC0180810E94982389819A8101969A83B7
:1045D000898389819A818B30910574F38DE00E94E3
:1045E000982389EF91E00E94D1231A8219820DC08D
:1045F00089819A81805A9E4FFC0180810E94982374
:1046000089819A8101969A83898389819A818B30E5
:10461000910574F38AE10E9498230F900F900F90F8
:104620000F90CF91DF910895DF93CF93CDB7DEB791
:1046300000008BE990E0FC0180818823D4F78CE9AD
:1046400090E0FC018081CF91DF910895DF93CF93BB
:10465000CDB7DEB78AE290E020E9FC01208385E94E
:1046600090E026E0FC01208389E290E027E6FC014F
:10467000208380E990E0FC01108282E290E022E257
:1046800030E0F90120812260FC01208382E290E089
:1046900022E230E0F90120812E7FFC012083CF91BE
:1046A000DF910895DF93CF93CDB7DEB78AE990E02D
:1046B00028E1FC0120838DE990E026E0FC012083C5
:1046C00089E990E027E6FC01208388E990E0FC017D
:1046D000108281E390E021E330E0F901208128603D
:1046E000FC01208381E390E021E330E0F9012081A7
:1046F0002B7FFC012083CF91DF910895DF93CF932F
:104700000F92CDB7DEB7898300008BE290E0FC0109
:104710008081882F90E0807290700097B1F38CE2D6
:1047200090E02981FC0120830F90CF91DF910895C3
:10473000DF93CF930F92CDB7DEB7898300008BE96B
:1047400090E0FC018081882F90E08072907000974B
:10475000B1F38CE990E02981FC0120830F90CF9187
:10476000DF910895DF93CF9300D0CDB7DEB79A8362
:1047700089830CC089819A81FC01208189819A8179
:1047800001969A838983822F0E947E2389819A8150
:10479000FC018081882371F70F900F90CF91DF91FA
:1047A0000895DF93CF9300D0CDB7DEB79A83898386
:1047B0000CC089819A81FC01208189819A810196AE
:1047C0009A838983822F0E94982389819A81FC0190
:1047D0008081882371F70F900F90CF91DF9108951A
:1047E000DF93CF93CDB7DEB72D970FB6F894DEBF2A
:1047F0000FBECDBF9B878A877D876C8725E0CE0162
:104800000596FC01322F11923A95E9F784E090E089
:104810009A8389831C821B828A859B8599235CF4F9
:104820008DE20E9498238A859B85909581959F4F64
:104830009B878A8724C08BE20E94982320C08A85A8
:104840009B852AE030E0B9010E94612B482F9E0130
:104850002B5F3F4F89819A81820F931FFC01408318
:104860008A859B852AE030E0B9010E94612B9B017B
:104870003B872A8789819A8101979A8389838A85D0
:104880009B850097E1F68C859D85FFEF8F3F9F0705
:1048900091F405C08B819C8101969C838B839E0142
:1048A0002B5F3F4F8B819C81820F931FFC01808186
:1048B000882381F30AC025E030E08C859D85A9011D
:1048C000481B590BCA019C838B838B819C819A83E3
:1048D000898311C09E012B5F3F4F89819A81820F8E
:1048E000931FFC018081805D0E94982389819A81B9
:1048F00001969A83898389819A818530910554F341
:104900002D960FB6F894DEBF0FBECDBFCF91DF91CD
:104910000895EF92FF920F931F937B018C0120E08B
:1049200030E040E05FE40E94652887FD11C0C801C7
:10493000B70120E030E040E05FE40E942C260E94B6
:1049400025299B01AC01205030404040504806C012
:10495000C801B7010E9425299B01AC01B901CA0118
:104960001F910F91FF90EF900895A0E0B0E0EBEB66
:10497000F4E20C94C92BFC01EA018081823008F436
:1049800038C1DB019C91923008F430C1843059F475
:10499000943009F02EC1918111968C91119798173E
:1049A00009F021C126C1943009F420C19230B1F43C
:1049B000823009F01EC1CA01AF0128E0DA010D9072
:1049C000AD01DC010D92CD012150C1F7DB01119643
:1049D0008C9111979181892389830AC1823009F4CE
:1049E00005C1C280D380DB0112966D907C90139735
:1049F00024813581468157811496ED90FD900D916B
:104A00001C911797C601861997095C0197FF04C08E
:104A1000AA24BB24A81AB90AB0E2AB16B1040CF060
:104A200061C0181619066CF5370148010A2C04C03C
:104A300096948794779467940A94D2F781E090E0F3
:104A4000A0E0B0E00A2C04C0880F991FAA1FBB1F6A
:104A50000A94D2F70197A109B1098E219F21A023C1
:104A6000B123EE24FF248701E3940097A105B1054B
:104A700019F4EE24FF248701E628F72808291929CC
:104A80003CC00097D1F1CA0CDB1C39014A010A2C49
:104A900004C096948794779467940A94D2F781E03F
:104AA00090E0A0E0B0E00A2C04C0880F991FAA1F74
:104AB000BB1F0A94D2F70197A109B109822393235E
:104AC000A423B52321E030E040E050E00097A105A9
:104AD000B10519F420E030E0A90126293729482939
:104AE00059290BC06C147D0424F4EE24FF248701A3
:104AF00004C0630120E030E0A9018181FB019181C4
:104B0000891709F445C0882349F0D801C701821BE1
:104B1000930BA40BB50B9C01AD0104C02E193F09EA
:104B2000400B510B57FD04C01982DB82CA820BC0B7
:104B300081E08983DB82CA8250954095309521952A
:104B40003F4F4F4F5F4F2C833D834E835F830DC09C
:104B5000880F991FAA1FBB1F8C839D83AE83BF83C1
:104B60008A819B8101979B838A838C819D81AE8101
:104B7000BF819C01AD0121503040404050402F3F4B
:104B8000EFEF3E07EFEF4E07EFE35E0708F30BC0D2
:104B90008983DB82CA822E0D3F1D401F511F2C834B
:104BA0003D834E835F8383E088832C813D814E81EA
:104BB0005F8157FF1DC0DA01C90181709070A0703C
:104BC000B0705695479537952795822B932BA42B3C
:104BD000B52B8C839D83AE83BF838A819B81019695
:104BE0009B838A8305C0EFEFF1E003C0FB0101C0A6
:104BF000FE01CF01CDB7DEB7EEE00C94E52BA0E2CD
:104C0000B0E0E5E0F6E20C94D12B69837A838B83E4
:104C10009C832D833E834F83588789E0E82EF12CB7
:104C2000EC0EFD1ECE010196B7010E949F2A8E0157
:104C30000F5E1F4FCE010596B8010E949F2AC70143
:104C4000B801AE01475E5F4F0E94B5240E94D12992
:104C5000A096E6E00C94ED2BA0E2B0E0E2E3F6E2F1
:104C60000C94D12B69837A838B839C832D833E8321
:104C70004F8358878E01075F1F4FCE010196B80101
:104C80000E949F2A91E1E92EF12CEC0EFD1ECE012F
:104C90000596B7010E949F2A8A8991E089278A8B0D
:104CA000C801B701AE01475E5F4F0E94B5240E9464
:104CB000D129A096E6E00C94ED2BA0E2B0E0E3E66B
:104CC000F6E20C94C52B69837A838B839C832D83B6
:104CD0003E834F835887CE010196BE01675F7F4FA9
:104CE0000E949F2ACE010596BE016F5E7F4F0E94F3
:104CF0009F2A9985923078F089898230C0F094306B
:104D000019F4823041F4CBC0843019F4923079F434
:104D1000C6C0923051F481E02A859A89291709F496
:104D200080E08A87CE010996BCC0823051F481E0D0
:104D30002A859A89291709F480E08A8BCE01419649
:104D4000B0C06D847E848F849888ED88FE880F893A
:104D5000188DE0E2F0E080E090E0DC01AA24BB24C2
:104D6000650120E030E0A901B30161707070611548
:104D70007105D1F02E0D3F1D401F511F1501260159
:104D8000280E391E4A1E5B1E81E090E0A0E0B0E0D4
:104D90002E153F054007510718F080E090E0DC0138
:104DA000820D931DA41DB51DAA0CBB1CCC1CDD1CC3
:104DB00017FF09C061E0262E312C412C512CA2286E
:104DC000B328C428D528319749F0EE0CFF1C001FEA
:104DD000111F9694879477946794C6CF6B897C89CA
:104DE000EB85FC856E0F7F1F6E5F7F4F7C8F6B8F17
:104DF00061E0EA857A89E71709F460E06A8F6B8DD4
:104E00007C8D10C0FC01E170F070309729F0569550
:104E10004795379527955068B695A79597958795A7
:104E20006F5F7F4FB7FDEECF0CC0880F991FAA1F91
:104E3000BB1F57FD8160220F331F441F551F615058
:104E400070408030E0E09E07E0E0AE07E0E4BE079F
:104E500060F36B8F7C8F6FE7E62EF12C012D112D07
:104E6000E822F9220A231B2360E4E616F104010577
:104E7000110561F487FD0AC0211531054105510571
:104E800029F0805C9F4FAF4FBF4F80788D8F9E8FF2
:104E9000AF8FB8A383E0898FCE01499602C08FEF10
:104EA00091E00E94D129A096E2E10C94E12BA8E1C7
:104EB000B0E0EDE5F7E20C94CD2B69837A838B8328
:104EC0009C832D833E834F8358878E01075F1F4F3E
:104ED000CE010196B8010E949F2A81E1E82EF12CB3
:104EE000EC0EFD1ECE010596B7010E949F2A998502
:104EF000923008F483C08989823008F47BC02A8507
:104F00003A8923272A87943011F0923021F4981798
:104F100009F06CC071C0843039F41D861E861F866E
:104F2000188A1C861B866AC0823019F484E089873F
:104F300065C08B859C852B893C89821B930B9C8744
:104F40008B872D853E854F855889ED88FE880F8992
:104F5000188D2E153F054007510738F4220F331FD7
:104F6000441F551F01979C878B876FE170E0A12C30
:104F7000B12CC12CA0E4DA2E80E090E0DC012E15EB
:104F80003F054007510740F08A299B29AC29BD29DC
:104F90002E193F09400B510BD694C794B794A79490
:104FA000220F331F441F551F6150704041F76FE7B8
:104FB000E62EF12C012D112DE822F9220A231B23C4
:104FC00060E4E616F1040105110561F487FD0AC0ED
:104FD000211531054105510529F0805C9F4FAF4FE8
:104FE000BF4F80788D879E87AF87B88B8E01075F14
:104FF0001F4F04C0870102C00FEF11E0C8010E94DB
:10500000D1296896EAE00C94E92BA8E1B0E0EBE046
:10501000F8E20C94D12B69837A838B839C832D8354
:105020003E834F8358878E01075F1F4FCE01019645
:10503000B8010E949F2A81E1E82EF12CEC0EFD1EA2
:10504000CE010596B7010E949F2A8985823040F0E3
:105050008989823028F0C801B7010E94082B01C05D
:1050600081E06896E6E00C94ED2BA8E1B0E0EBE37C
:10507000F8E20C94D12B69837A838B839C832D83F4
:105080003E834F8358878E01075F1F4FCE010196E5
:10509000B8010E949F2A81E1E82EF12CEC0EFD1E42
:1050A000CE010596B7010E949F2A8985823040F083
:1050B0008989823028F0C801B7010E94082B01C0FD
:1050C0008FEF6896E6E00C94ED2BA8E1B0E0EBE6FC
:1050D000F8E20C94D12B69837A838B839C832D8394
:1050E0003E834F8358878E01075F1F4FCE01019685
:1050F000B8010E949F2A81E1E82EF12CEC0EFD1EE2
:10510000CE010596B7010E949F2A8985823040F022
:105110008989823028F0C801B7010E94082B01C09C
:105120008FEF6896E6E00C94ED2BA8E1B0E0EBE998
:10513000F8E20C94D12B69837A838B839C832D8333
:105140003E834F8358878E01075F1F4FCE01019624
:10515000B8010E949F2A81E1E82EF12CEC0EFD1E81
:10516000CE010596B7010E949F2A8985823040F0C2
:105170008989823028F0C801B7010E94082B01C03C
:1051800081E06896E6E00C94ED2BA8E0B0E0EBEC53
:10519000F8E20C94D12B7B018C0183E08983D80148
:1051A000C7018827B7FD83959927AA27BB27282FF2
:1051B0008A83E114F1040105110519F482E0898361
:1051C00037C08EE190E09C838B83222389F080E0BE
:1051D000E81680E0F80680E0080780E8180769F123
:1051E00010950095F094E094E11CF11C011D111D37
:1051F000ED82FE820F831887C801B7010E947729CC
:105200009C01215030401216130694F4022E04C063
:10521000EE0CFF1C001F111F0A94D2F7ED82FE82D4
:105220000F8318878EE190E0821B930B9C838B8306
:10523000CE0101960E94D12904C060E070E080E0B8
:105240009FEC2896E6E00C94ED2BACE0B0E0EBE2AE
:10525000F9E20C94D52B69837A838B839C83CE01EE
:105260000196BE016B5F7F4F0E949F2A8D81823025
:1052700081F1823070F1843021F48E81882369F1CC
:105280000AC02F81388537FD24C06E812F3131054A
:105290003CF0662311F120E030E040E050E821C00E
:1052A0008EE190E0821B930B29853A854B855C85C6
:1052B00004C056954795379527958A95D2F766236A
:1052C00081F050954095309521953F4F4F4F5F4F5E
:1052D00008C020E030E0A90104C02FEF3FEF4FEFFE
:1052E0005FE7B901CA012C96E2E00C94F12BAF9272
:1052F000BF92CF92DF92EF92FF920F931F937B01A9
:105300008C0180E0E81680E0F80681E0080780E084
:10531000180758F4EFEFEE16F1040105110509F036
:1053200090F480E090E0DC0117C0F0E0EF16F0E0D0
:10533000FF06F0E00F07F1E01F0750F480E190E076
:10534000A0E0B0E009C088E090E0A0E0B0E004C0D8
:1053500088E190E0A0E0B0E020E230E040E050E002
:10536000281B390B4A0B5B0B5701680104C0D6940C
:10537000C794B794A7948A95D2F7D601C501895FDF
:105380009D4FFC018081281B310941095109C90148
:105390001F910F91FF90EF90DF90CF90BF90AF9053
:1053A0000895EF92FF920F931F93CF93DF93FC0129
:1053B000248135814681578161818081823020F44A
:1053C0004061EFEFF0E0A3C0843009F49BC082306D
:1053D00009F492C0211531054105510509F48FC02A
:1053E0000280F381E02D8FEFE238F8070CF05AC00D
:1053F000C2E8DFEFCE1BDF0BCA31D1056CF57901B6
:105400008A010C2E04C016950795F794E7940A9428
:10541000D2F781E090E0A0E0B0E00C2E04C0880F4D
:10542000991FAA1FBB1F0A94D2F70197A109B109BE
:1054300082239323A423B52321E030E040E050E011
:105440000097A105B10519F420E030E0A9012E294B
:105450003F29402B512B03C020E030E0A901DA01A5
:10546000C9018F779070A070B07080349105A1054C
:10547000B10539F427FF09C0205C3F4F4F4F5F4F04
:1054800004C0215C3F4F4F4F5F4FE1E0F0E0203020
:1054900080E0380780E0480780E4580728F5E0E01E
:1054A000F0E022C0E038F1056CF5E158FF4FDA0179
:1054B000C9018F779070A070B07080349105A105FC
:1054C000B10539F427FF09C0205C3F4F4F4F5F4FB4
:1054D00004C0215C3F4F4F4F5F4F57FF05C05695AB
:1054E000479537952795319687E056954795379597
:1054F00027958A95D1F70BC0E0E0F0E005C0E0E029
:10550000F0E005C0EFEFF0E020E030E0A9018E2FE1
:10551000879588278795942F9F7767956627679546
:10552000E695E22EA92FA82BFE2FF62B622F732FC4
:105530008A2F9F2FCDB7DEB7E6E00C94ED2BDC0170
:10554000FB012C9111963C91119712968C91129718
:10555000482F4F7750E0982F991F9927991F13963E
:105560006C911397862F880F892B90E0661F662712
:10557000661F6183009739F52115310541055105F5
:1055800011F482E029C082E89FEF9383828367E071
:10559000220F331F441F551F6A95D1F783E0808384
:1055A00009C0220F331F441F551F82819381019729
:1055B00093838283203080E0380780E0480780E4CE
:1055C000580778F320C08F3F910579F421153105F4
:1055D0004105510519F484E08083089544FF03C018
:1055E00081E0808310C010820EC08F57904093835B
:1055F000828383E0808387E0220F331F441F551F7F
:105600008A95D1F750642483358346835783089560
:10561000FC01DB019081923008F449C08C9182300A
:1056200008F445C0943051F461818430B1F511968D
:105630002C91119730E0261B310941C0843021F0B4
:10564000923041F48230B1F111968C9111978823F8
:10565000A1F12DC06181823001F111968C911197D9
:105660006817D9F42281338112968D919C911397FA
:105670008217930794F028173907BCF024813581ED
:105680004681578114968D919D910D90BC91A02DCE
:1056900082179307A407B50718F4662341F00DC0DD
:1056A000281739074A075B0728F4662331F021E001
:1056B00030E005C020E030E002C02FEF3FEFC9012D
:1056C000089597FB092E07260AD077FD04D027D02E
:1056D00006D000201AF4709561957F4F0895F6F773
:1056E000909581959F4F089597FB092E05260ED022
:1056F00057FD04D028D00AD0001C38F450954095AE
:10570000309521953F4F4F4F5F4F0895F6F7909595
:105710008095709561957F4F8F4F9F4F0895AA1B7D
:10572000BB1B51E107C0AA1FBB1FA617B70710F08C
:10573000A61BB70B881F991F5A95A9F780959095BE
:10574000BC01CD010895A1E21A2EAA1BBB1BFD01CD
:105750000DC0AA1FBB1FEE1FFF1FA217B307E40750
:10576000F50720F0A21BB30BE40BF50B661F771FA8
:10577000881F991F1A9469F7609570958095909588
:105780009B01AC01BD01CF0108952F923F924F9232
:105790005F926F927F928F929F92AF92BF92CF92C1
:1057A000DF92EF92FF920F931F93CF93DF93CDB7CA
:1057B000DEB7CA1BDB0B0FB6F894DEBF0FBECDBF42
:1057C00009942A88398848885F846E847D848C8413
:1057D0009B84AA84B984C884DF80EE80FD800C811C
:1057E0001B81AA81B981CE0FD11D0FB6F894DEBFFF
:0C57F0000FBECDBFED010895F894FFCF6F
:1057FC00696E6F6B006C6F6F7020656E6400726504
:10580C00636976656400535552414B5348412020DF
:10581C00202020202000415400434D474600415495
:10582C002B434D47533D00415444004469616C6C1B
:10583C00696E6700200101010130303030303030AA
:10584C00303030303030303030303030303030304C
:10585C00303030303030303030303030303030303C
:10586C00303030304E30305649540053555241434D
:10587C00534841006163636964656E7420486170CC
:10588C00706E65640057616974696E6720666F722B
:10589C00204750530046697820417661696C6162FB
:1058AC006C650039353033313339313135004E6F59
:1058BC00726D616C00415400434D47460041542BBE
:1058CC00434D47533D006163636964656E742068A2
:1058DC00617070656E6564206174006C6F6E6769D1
:1058EC003D006C617474693D0074696D653D000028
:1058FC000000000000000000010202030303030487
:10590C000404040404040405050505050505050542
:10591C000505050505050506060606060606060622
:10592C00060606060606060606060606060606060B
:10593C0006060606060606070707070707070707F2
:10594C0007070707070707070707070707070707DB
:10595C0007070707070707070707070707070707CB
:10596C0007070707070707070707070707070707BB
:10597C0007070707070707080808080808080808A2
:10598C00080808080808080808080808080808088B
:10599C00080808080808080808080808080808087B
:1059AC00080808080808080808080808080808086B
:1059BC00080808080808080808080808080808085B
:1059CC00080808080808080808080808080808084B
:1059DC00080808080808080808080808080808083B
:1059EC00080808080808080808080808080808082B
:0859FC0008080808080808006B
:00000001FF
