:100000000C9446000C945D000C945D000C945D0013
:100010000C945D000C945D000C945D000C945D00EC
:100020000C945D000C945D000C945D000C945D00DC
:100030000C945D000C945D000C945D000C945D00CC
:100040000C945D000C945D000C945D000C945D00BC
:100050000C945D000C945D000C945D000C945D00AC
:100060000C945D000C945D000C945D000C945D009C
:100070000C945D000C945D000C945D000C945D008C
:100080000C945D000C945D000C945D0011241FBE67
:10009000CFEFD0E1DEBFCDBF11E0A0E0B1E0E6EEF2
:1000A000F5E200E00BBF02C007900D92AE30B10741
:1000B000D9F70E9495000C94F1120C940000DF9384
:1000C000CF93CDB7DEB783E590E02AE6FC0120832D
:1000D00081E590E0FC01108282E590E0FC01108255
:1000E000CF91DF910895DF93CF93CDB7DEB78BE843
:1000F00090E029EAFC0120838AE890E024E0FC01FA
:100100002083CF91DF910895DF93CF93CDB7DEB7F2
:100110008FE490E029EAFC0120838EE490E024E063
:10012000FC012083CF91DF910895DF93CF93CDB76A
:10013000DEB780E00E94B00780E060E00E94720CB1
:1001400080E091E00E94C30BFFCF0F931F93DF93DA
:10015000CF93CDB7DEB7CD57D0400FB6F894DEBF02
:100160000FBECDBF9E0124583F4FF9018083CE01C1
:1001700083589F4FFC016083CE0184589F4FFC0140
:1001800080818295807F8983CE0184589F4FFC01B6
:100190008081807F8A83CE0183589F4FFC018081BC
:1001A000882351F485E390E025E330E0F9012081D4
:1001B0002B7FFC01208309C085E390E025E330E03C
:1001C000F90120812460FC01208380E090E0A0E020
:1001D000BFE38C839D83AE83BF836C817D818E81E1
:1001E0009F812BEA3AEA4AEA50E40E94790EDC0148
:1001F000CB0188879987AA87BB8711E068857985B5
:100200008A859B8520E030E040E85FE30E94811012
:1002100088230CF010E0112319F081E08C87A3C033
:1002200011E0688579858A859B8520E030E04FE77D
:1002300053E40E94211018160CF010E0112309F469
:1002400089C06C817D818E819F8120E030E04AE70A
:1002500054E40E94730FDC01CB018D879E87AF872A
:10026000B88B6D857E858F85988920E030E04AE7E0
:1002700055E40E94790EDC01CB01898B9A8BAB8B04
:10028000BC8B11E069897A898B899C8920E030E0F8
:1002900040E85FE30E94811088230CF010E01123F6
:1002A00029F081E090E09E8B8D8B46C011E069893A
:1002B0007A898B899C8920E03FEF4FE757E40E94C1
:1002C000211018160CF010E0112361F16D857E8568
:1002D0008F85988920E030E040E251E40E94790E59
:1002E000DC01CB01BC01CD010E94A50CDC01CB01DE
:1002F0009E8B8D8B12C080E991E0988F8F8B8F89B8
:10030000988D8C01C8010197F1F78C01188F0F8B24
:100310008D899E8901979E8B8D8B8D899E890097F3
:1003200051F728C069897A898B899C890E94A50C1C
:10033000DC01CB019E8B8D8B8D899E899A8F898F55
:10034000898D9A8D8C01F8013197F1F78F011A8F01
:10035000098F10C0688579858A859B850E94A50CC8
:10036000DC01CB018C878C858B8F8B8D182F1A9598
:10037000F1F71B8F85E390E025E330E0F901208160
:100380002860FC01208385E390E0FC018081982FA8
:100390009F708A81892B8B8385E390E02B81FC0100
:1003A000208380E090E0A0E8BFE38C8F9D8FAE8F2C
:1003B000BF8F6C8D7D8D8E8D9F8D2BEA3AEA4AEA38
:1003C00050E40E94790EDC01CB0188A399A3AAA373
:1003D000BBA311E068A179A18AA19BA120E030E034
:1003E00040E85FE30E94811088230CF010E01123A5
:1003F00019F081E08CA3A3C011E068A179A18AA1C2
:100400009BA120E030E04FE753E40E942110181632
:100410000CF010E0112309F489C06C8D7D8D8E8D58
:100420009F8D20E030E04AE754E40E94730FDC0126
:10043000CB018DA39EA3AFA3B8A76DA17EA18FA171
:1004400098A520E030E04AE755E40E94790EDC01EF
:10045000CB0189A79AA7ABA7BCA711E069A57AA58C
:100460008BA59CA520E030E040E85FE30E9481106E
:1004700088230CF010E0112329F081E090E09EA782
:100480008DA746C011E069A57AA58BA59CA520E0A3
:100490003FEF4FE757E40E94211018160CF010E0D0
:1004A000112361F16DA17EA18FA198A520E030E01C
:1004B00040E251E40E94790EDC01CB01BC01CD0188
:1004C0000E94A50CDC01CB019EA78DA712C080E97C
:1004D00091E098AB8FA78FA598A98C01C8010197CF
:1004E000F1F78C0118AB0FA78DA59EA501979EA7CC
:1004F0008DA78DA59EA5009751F728C069A57AA55F
:100500008BA59CA50E94A50CDC01CB019EA78DA705
:100510008DA59EA59AAB89AB89A99AA98C01F801F2
:100520003197F1F78F011AAB09AB10C068A179A11F
:100530008AA19BA10E94A50CDC01CB018CA38CA1FC
:100540008BAB8BA9182F1A95F1F71BAB85E390E0C5
:1005500025E330E0F9012081277FFC01208380E042
:1005600090E0A0E8BFE38CAB9DABAEABBFAB6CA99A
:100570007DA98EA99FA92BEA3AEA4AEA50E40E9493
:10058000790EDC01CB0188AF99AFAAAFBBAF11E008
:1005900068AD79AD8AAD9BAD20E030E040E85FE327
:1005A0000E94811088230CF010E0112319F081E0E3
:1005B0008CAFF3C011E068AD79AD8AAD9BAD20E0A2
:1005C00030E04FE753E40E94211018160CF010E0C1
:1005D000112309F4D9C06CA97DA98EA99FA920E097
:1005E00030E04AE754E40E94730FDC01CB019E0126
:1005F000235C3F4FF90180839183A283B3838E01F3
:100600000F5B1F4FCE01CD96FC016081718182810D
:10061000938120E030E04AE755E40E94790EDC0146
:10062000CB01F80180839183A283B383CE018F5BDA
:100630009F4F11E0FC01608171818281938120E0F4
:1006400030E040E85FE30E94811088230CF010E066
:10065000112349F0CE018B5B9F4F21E030E0FC017C
:100660003183208373C0CE018F5B9F4F11E0FC016B
:10067000608171818281938120E03FEF4FE757E4F1
:100680000E94211018160CF010E0112309F44CC040
:10069000CE01CD96FC01608171818281938120E041
:1006A00030E040E251E40E94790EDC01CB018E0182
:1006B0000B5B1F4FBC01CD010E94A50CDC01CB01DF
:1006C000F8019183808327C0CE01895B9F4F20E989
:1006D00031E0FC0131832083CE01895B9F4FFC0117
:1006E000808191818C01C8010197F1F78C01CE01C5
:1006F000895B9F4FFC0111830083CE018B5B9F4F71
:100700009E012B5B3F4FF901208131812150304008
:10071000FC0131832083CE018B5B9F4FFC018081E4
:100720009181009789F64CC08E010B5B1F4FCE0163
:100730008F5B9F4FFC0160817181828193810E9458
:10074000A50CDC01CB01F80191838083CE01875B8E
:100750009F4F9E012B5B3F4FF90120813181FC01AE
:1007600031832083CE01875B9F4FFC018081918183
:100770008C01C8010197F1F78C01CE01875B9F4F77
:10078000FC01118300831CC068AD79AD8AAD9BADBF
:100790000E94A50CDC01CB018CAFCE01855B9F4F85
:1007A0002CADFC012083CE01855B9F4FFC01808135
:1007B000182F1A95F1F7CE01855B9F4FFC0110832E
:1007C00085E390E025E330E0F90120812860FC0119
:1007D000208385E390E0FC018081982F9F708981C0
:1007E000892B8B8385E390E02B81FC0120839E0184
:1007F000245B3F4F80E090E0A0E8BFE3F9018083F5
:100800009183A283B3838E01005B1F4FCE01845B73
:100810009F4FFC0160817181828193812BEA3AEACA
:100820004AEA50E40E94790EDC01CB01F801808392
:100830009183A283B383CE01805B9F4F11E0FC01C3
:10084000608171818281938120E030E040E85FE344
:100850000E94811088230CF010E0112339F0CE01A2
:100860008C5A9F4F21E0FC01208305C1CE01805BA3
:100870009F4F11E0FC01608171818281938120E0B2
:1008800030E04FE753E40E94211018160CF010E0FE
:10089000112309F4DFC0CE01845B9F4FFC0160810E
:1008A00071818281938120E030E04AE754E40E9424
:1008B000730FDC01CB019E012B5A3F4FF90180835E
:1008C0009183A283B3838E01075A1F4FCE018B5AA7
:1008D0009F4FFC01608171818281938120E030E033
:1008E0004AE755E40E94790EDC01CB01F8018083D0
:1008F0009183A283B383CE01875A9F4F11E0FC01FD
:10090000608171818281938120E030E040E85FE383
:100910000E94811088230CF010E0112349F0CE01D1
:10092000835A9F4F21E030E0FC013183208374C063
:10093000CE01875A9F4F11E0FC0160817181828155
:10094000938120E03FEF4FE757E40E9421101816F3
:100950000CF010E0112309F44DC0CE018B5A9F4FCB
:10096000FC01608171818281938120E030E040E26E
:1009700051E40E94790EDC01CB018E01035A1F4F16
:10098000BC01CD010E94A50CDC01CB01F8019183D3
:10099000808327C0CE01815A9F4F20E931E0FC01BE
:1009A00031832083CE01815A9F4FFC018081918148
:1009B0008C01C8010197F1F78C01CE01815A9F4F3C
:1009C000FC0111830083CE01835A9F4F9E01235A5D
:1009D0003F4FF9012081318121503040FC013183AA
:1009E0002083CE01835A9F4FFC0180819181009723
:1009F00089F658C08E01035A1F4FCE01875A9F4F68
:100A0000FC0160817181828193810E94A50CDC01CF
:100A1000CB01F80191838083CE018F599F4F9E01B6
:100A2000235A3F4FF90120813181FC01318320831A
:100A3000CE018F599F4FFC01808191818C01C801AB
:100A40000197F1F78C01CE018F599F4FFC01118363
:100A5000008328C08E010C5A1F4FCE01805B9F4F30
:100A6000FC0160817181828193810E94A50CDC016F
:100A7000CB01F8018083CE018D599F4F9E012C5AE6
:100A80003F4FF9012081FC012083CE018D599F4FFA
:100A9000FC018081182F1A95F1F7CE018D599F4FD7
:100AA000FC01108385E390E025E330E0F90120812B
:100AB000277FFC0120839E012C593F4F80E090E06E
:100AC000A0E8BFE3F90180839183A283B3838E0101
:100AD00008591F4FCE018C599F4FFC0160817181D5
:100AE000828193812BEA3AEA4AEA50E40E94790E25
:100AF000DC01CB01F80180839183A283B383CE0113
:100B000088599F4F11E0FC0160817181828193813E
:100B100020E030E040E85FE30E94811088230CF081
:100B200010E0112339F0CE0184599F4F21E0FC01E0
:100B3000208305C1CE0188599F4F11E0FC016081DF
:100B400071818281938120E030E04FE753E40E947D
:100B5000211018160CF010E0112309F4DFC0CE01AB
:100B60008C599F4FFC01608171818281938120E0CB
:100B700030E04AE754E40E94730FDC01CB019E0190
:100B800023593F4FF90180839183A283B3838E0160
:100B90000F581F4FCE0183599F4FFC016081718117
:100BA0008281938120E030E04AE755E40E94790E8B
:100BB000DC01CB01F80180839183A283B383CE0152
:100BC0008F589F4F11E0FC01608171818281938178
:100BD00020E030E040E85FE30E94811088230CF0C1
:100BE00010E0112349F0CE018B589F4F21E030E0F7
:100BF000FC013183208374C0CE018F589F4F11E0D8
:100C0000FC01608171818281938120E03FEF4FE799
:100C100057E40E94211018160CF010E0112309F47B
:100C20004DC0CE0183599F4FFC016081718182814B
:100C3000938120E030E040E251E40E94790EDC0133
:100C4000CB018E010B581F4FBC01CD010E94A50C9A
:100C5000DC01CB01F8019183808327C0CE01895844
:100C60009F4F20E931E0FC0131832083CE01895878
:100C70009F4FFC01808191818C01C8010197F1F7A0
:100C80008C01CE0189589F4FFC0111830083CE0156
:100C90008B589F4F9E012B583F4FF9012081318186
:100CA00021503040FC0131832083CE018B589F4F6F
:100CB000FC0180819181009789F658C08E010B5804
:100CC0001F4FCE018F589F4FFC016081718182813F
:100CD00093810E94A50CDC01CB01F80191838083F4
:100CE000CE0187589F4F9E012B583F4FF90120811D
:100CF0003181FC0131832083CE0187589F4FFC0155
:100D0000808191818C01C8010197F1F78C01CE019E
:100D100087589F4FFC011183008328C08E0104591E
:100D20001F4FCE0188599F4FFC01608171818281E4
:100D300093810E94A50CDC01CB01F8018083CE01D8
:100D400085589F4F9E0124593F4FF9012081FC0196
:100D50002083CE0185589F4FFC018081182F1A9562
:100D6000F1F7CE0185589F4FFC0110830E94C40605
:100D7000C358DF4F0FB6F894DEBF0FBECDBFCF9183
:100D8000DF911F910F9108950F931F93DF93CF93DE
:100D9000CDB7DEB768970FB6F894DEBF0FBECDBFF4
:100DA00080E090E0A8E4B3E489839A83AB83BC83BA
:100DB00069817A818B819C812BEA3AEA4AEA50E484
:100DC0000E94790EDC01CB018D839E83AF83B887AF
:100DD00011E06D817E818F81988520E030E040E8D0
:100DE0005FE30E94811088230CF010E0112319F0BA
:100DF00081E08987A3C011E06D817E818F81988514
:100E000020E030E04FE753E40E94211018160CF068
:100E100010E0112309F489C069817A818B819C815A
:100E200020E030E04AE754E40E94730FDC01CB017C
:100E30008A879B87AC87BD876A857B858C859D85E6
:100E400020E030E04AE755E40E94790EDC01CB0156
:100E50008E879F87A88BB98B11E06E857F858889E7
:100E6000998920E030E040E85FE30E948110882308
:100E70000CF010E0112329F081E090E09B8B8A8B2D
:100E800046C011E06E857F858889998920E03FEF13
:100E90004FE757E40E94211018160CF010E01123C0
:100EA00061F16A857B858C859D8520E030E040E29C
:100EB00051E40E94790EDC01CB01BC01CD010E94FE
:100EC000A50CDC01CB019B8B8A8B12C080E991E0E1
:100ED0009D8B8C8B8C899D898C01C8010197F1F7C2
:100EE0008C011D8B0C8B8A899B8901979B8B8A8B2C
:100EF0008A899B89009751F728C06E857F858889EC
:100F000099890E94A50CDC01CB019B8B8A8B8A8975
:100F10009B899F8B8E8B8E899F898C01C80101973D
:100F2000F1F78C011F8B0E8B10C06D817E818F813C
:100F300098850E94A50CDC01CB0189878985888F63
:100F4000888D182F1A95F1F7188F68960FB6F894B8
:100F5000DEBF0FBECDBFCF91DF911F910F910895DE
:100F60000F931F93DF93CF93CDB7DEB7C755D04014
:100F70000FB6F894DEBF0FBECDBF9E01295A3F4F7A
:100F8000F901808380E090E0A0EFB1E489839A8347
:100F9000AB83BC8369817A818B819C8120E030E0C6
:100FA0004AE755E40E94790EDC01CB018D839E83D4
:100FB000AF83B88711E06D817E818F81988520E0B5
:100FC00030E040E85FE30E94811088230CF010E0DD
:100FD000112329F081E090E09A87898746C011E0CB
:100FE0006D817E818F81988520E03FEF4FE757E448
:100FF0000E94211018160CF010E0112361F1698194
:101000007A818B819C8120E030E040E251E40E94B3
:10101000790EDC01CB01BC01CD010E94A50CDC01E5
:10102000CB019A87898712C080E991E09C878B87E2
:101030008B859C858C01C8010197F1F78C011C8779
:101040000B8789859A8501979A87898789859A85EB
:10105000009751F717C06D817E818F8198850E941E
:10106000A50CDC01CB019A87898789859A859E87A3
:101070008D878D859E858C01F8013197F1F78F0161
:101080001E870D8784E390E024E330E0F90120819E
:10109000206FFC01208384E390E024E330E0F90139
:1010A00020812860FC01208384E390E024E330E089
:1010B000F90120812460FC01208384E390E024E393
:1010C00030E0F90120812160FC01208385E390E07C
:1010D00025E330E0F90120812F70FC01208385E3B6
:1010E00090E025E330E0F9012081277FFC01208397
:1010F00085E390E025E330E0F90120812E7FFC01BB
:10110000208385E390E025E330E0F90120812B7F07
:10111000FC0120838AE999E9A9E9BEE38F87988BCE
:10112000A98BBA8B6F85788989899A892BEA3AEAE3
:101130004AEA50E40E94790EDC01CB018B8B9C8B38
:10114000AD8BBE8B11E06B897C898D899E8920E0F7
:1011500030E040E85FE30E94811088230CF010E04B
:10116000112319F081E08F8BA3C011E06B897C897A
:101170008D899E8920E030E04FE753E40E942110E2
:1011800018160CF010E0112309F489C06F857889D6
:1011900089899A8920E030E04AE754E40E94730F7D
:1011A000DC01CB01888F998FAA8FBB8F688D798DD9
:1011B0008A8D9B8D20E030E04AE755E40E94790E4D
:1011C000DC01CB018C8F9D8FAE8FBF8F11E06C8DBA
:1011D0007D8D8E8D9F8D20E030E040E85FE30E94A2
:1011E000811088230CF010E0112329F081E090E0B9
:1011F00099A388A346C011E06C8D7D8D8E8D9F8D47
:1012000020E03FEF4FE757E40E94211018160CF042
:1012100010E0112361F1688D798D8A8D9B8D20E01E
:1012200030E040E251E40E94790EDC01CB01BC01C8
:10123000CD010E94A50CDC01CB0199A388A312C0AB
:1012400080E991E09BA38AA38AA19BA18C01C8019C
:101250000197F1F78C011BA30AA388A199A101971B
:1012600099A388A388A199A1009751F728C06C8DF4
:101270007D8D8E8D9F8D0E94A50CDC01CB0199A3E5
:1012800088A388A199A19DA38CA38CA19DA18C0169
:10129000F8013197F1F78F011DA30CA310C06B89E2
:1012A0007C898D899E890E94A50CDC01CB018F8BE6
:1012B0008F898EA38EA1182F1A95F1F71EA385E3AF
:1012C00090E025E330E0F90120812860FC012083D3
:1012D00085E390E025E330E0F90120812062FC0104
:1012E000208380E090E0A0E8BFE38FA398A7A9A7A0
:1012F000BAA76FA178A589A59AA52BEA3AEA4AEA86
:1013000050E40E94790EDC01CB018BA79CA7ADA70E
:10131000BEA711E06BA57CA58DA59EA520E030E0C1
:1013200040E85FE30E94811088230CF010E0112355
:1013300019F081E08FA7A3C011E06BA57CA58DA556
:101340009EA520E030E04FE753E40E9421101816DC
:101350000CF010E0112309F489C06FA178A589A5CC
:101360009AA520E030E04AE754E40E94730FDC01C4
:10137000CB0188AB99ABAAABBBAB68A979A98AA909
:101380009BA920E030E04AE755E40E94790EDC0199
:10139000CB018CAB9DABAEABBFAB11E06CA97DA913
:1013A0008EA99FA920E030E040E85FE30E94811011
:1013B00088230CF010E0112329F081E090E099AF30
:1013C00088AF46C011E06CA97DA98EA99FA920E035
:1013D0003FEF4FE757E40E94211018160CF010E081
:1013E000112361F168A979A98AA99BA920E030E0BD
:1013F00040E251E40E94790EDC01CB01BC01CD0139
:101400000E94A50CDC01CB0199AF88AF12C080E926
:1014100091E09BAF8AAF8AAD9BAD8C01C80101976B
:10142000F1F78C011BAF0AAF88AD99AD019799AF69
:1014300088AF88AD99AD009751F728C06CA97DA9F8
:101440008EA99FA90E94A50CDC01CB0199AF88AFA2
:1014500088AD99AD9DAF8CAF8CAD9DAD8C01F80181
:101460003197F1F78F011DAF0CAF10C06BA57CA5B4
:101470008DA59EA50E94A50CDC01CB018FA78FA591
:101480008EAF8EAD182F1A95F1F71EAF85E390E061
:1014900025E330E0F9012081277FFC0120839E01B4
:1014A000215C3F4F80E090E0A0E8BFE3F90180833A
:1014B0009183A283B3838E010D5B1F4FCE01CF9624
:1014C000FC0160817181828193812BEA3AEA4AEAC8
:1014D00050E40E94790EDC01CB01F80180839183F6
:1014E000A283B383CE018D5B9F4F11E0FC0160812D
:1014F00071818281938120E030E040E85FE30E94C7
:10150000811088230CF010E0112339F0CE01895BA3
:101510009F4F21E0FC01208304C1CE018D5B9F4FD2
:1015200011E0FC01608171818281938120E030E0D3
:101530004FE753E40E94211018160CF010E011231D
:1015400009F4DEC0CE01CF96FC01608171818281F9
:10155000938120E030E04AE754E40E94730FDC01FD
:10156000CB019E01285B3F4FF90180839183A283C9
:10157000B3838E01045B1F4FCE01885B9F4FFC013C
:10158000608171818281938120E030E04AE755E4F7
:101590000E94790EDC01CB01F80180839183A28344
:1015A000B383CE01845B9F4F11E0FC0160817181A8
:1015B0008281938120E030E040E85FE30E94811067
:1015C00088230CF010E0112349F0CE01805B9F4F7F
:1015D00021E030E0FC013183208374C0CE01845BC4
:1015E0009F4F11E0FC01608171818281938120E035
:1015F0003FEF4FE757E40E94211018160CF010E05F
:10160000112309F44DC0CE01885B9F4FFC0160811E
:1016100071818281938120E030E040E251E40E94B8
:10162000790EDC01CB018E01005B1F4FBC01CD01A7
:101630000E94A50CDC01CB01F8019183808327C0B7
:10164000CE018E5A9F4F20E931E0FC013183208387
:10165000CE018E5A9F4FFC01808191818C01C8017F
:101660000197F1F78C01CE018E5A9F4FFC01118337
:101670000083CE01805B9F4F9E01205B3F4FF901AD
:101680002081318121503040FC0131832083CE0103
:10169000805B9F4FFC0180819181009789F658C043
:1016A0008E01005B1F4FCE01845B9F4FFC01608168
:1016B0007181828193810E94A50CDC01CB01F8012C
:1016C00091838083CE018C5A9F4F9E01205B3F4FB8
:1016D000F90120813181FC0131832083CE018C5AB4
:1016E0009F4FFC01808191818C01C8010197F1F726
:1016F0008C01CE018C5A9F4FFC011183008328C0BE
:101700008E01095B1F4FCE018D5B9F4FFC016081F5
:101710007181828193810E94A50CDC01CB01F801CB
:101720008083CE018A5A9F4F9E01295B3F4FF9016A
:101730002081FC012083CE018A5A9F4FFC018081C9
:10174000182F1A95F1F7CE018A5A9F4FFC0110838A
:101750000E94C406CE01895A9F4FFC0180818C6093
:1017600060E00E94A50088E260E00E94A500C95ADE
:10177000DF4F0FB6F894DEBF0FBECDBFCF91DF9124
:101780001F910F910895DF93CF9300D0CDB7DEB7AF
:101790009A8389830CC089819A81FC01808161E0F0
:1017A0000E94A50089819A8101969A838983898103
:1017B0009A81FC018081882371F70F900F90CF915F
:1017C000DF910895DF93CF93CDB7DEB72D970FB696
:1017D000F894DEBF0FBECDBF9B878A877D876C875D
:1017E00025E0CE010596FC01322F11923A95E9F7DA
:1017F00084E090E09A8389831C821B8220C08A85C2
:101800009B852AE030E0B9010E949312482F9E0187
:101810002B5F3F4F89819A81820F931FFC01408388
:101820008A859B852AE030E0B9010E9493129B01D2
:101830003B872A8789819A8101979A8389838A8540
:101840009B850097E1F68C859D85FFEF8F3F9F0775
:1018500091F405C08B819C8101969C838B839E01B2
:101860002B5F3F4F8B819C81820F931FFC018081F6
:10187000882381F30AC025E030E08C859D85A9018D
:10188000481B590BCA019C838B838A859B859923AE
:1018900024F48DE261E00E94A5008B819C819A83F3
:1018A000898312C09E012B5F3F4F89819A81820FED
:1018B000931FFC018081805D61E00E94A500898109
:1018C0009A8101969A83898389819A8185309105CD
:1018D0004CF32D960FB6F894DEBF0FBECDBFCF915F
:1018E000DF910895DF93CF9300D0CDB7DEB7898322
:1018F0006A838A81882F90E08130910589F0823057
:1019000091051CF4009741F017C08230910561F0F9
:101910008330910569F010C08981805889830CC09B
:1019200089818054898308C089818C56898304C049
:1019300089818C5289830000898160E00E94A50022
:101940000F900F90CF91DF910895EF92FF920F9338
:101950001F937B018C0120E030E040E05FE40E94B7
:10196000511087FD11C0C801B70120E030E040E010
:101970005FE40E94480E0E94B1109B01AC01205010
:1019800030404040504806C0C801B7010E94B11025
:101990009B01AC01B901CA011F910F91FF90EF901B
:1019A0000895A0E0B0E0E7EDFCE00C94BE12FC016D
:1019B000EA018081823008F438C1DB019C919230C9
:1019C00008F430C1843059F4943009F02EC191816B
:1019D00011968C911197981709F021C126C1943066
:1019E00009F420C19230B1F4823009F01EC1CA015D
:1019F000AF0128E0DA010D90AD01DC010D92CD01BF
:101A00002150C1F7DB0111968C91119791818923A7
:101A100089830AC1823009F405C1C280D380DB0109
:101A200012966D907C901397248135814681578161
:101A30001496ED90FD900D911C911797C601861993
:101A400097095C0197FF04C0AA24BB24A81AB90A0D
:101A5000B0E2AB16B1040CF061C0181619066CF5B3
:101A6000370148010A2C04C09694879477946794B0
:101A70000A94D2F781E090E0A0E0B0E00A2C04C024
:101A8000880F991FAA1FBB1F0A94D2F70197A109BB
:101A9000B1098E219F21A023B123EE24FF248701C9
:101AA000E3940097A105B10519F4EE24FF24870102
:101AB000E628F728082919293CC00097D1F1CA0C5B
:101AC000DB1C39014A010A2C04C096948794779450
:101AD00067940A94D2F781E090E0A0E0B0E00A2C8D
:101AE00004C0880F991FAA1FBB1F0A94D2F7019741
:101AF000A109B10982239323A423B52321E030E077
:101B000040E050E00097A105B10519F420E030E075
:101B1000A90126293729482959290BC06C147D04AD
:101B200024F4EE24FF24870104C0630120E030E0A8
:101B3000A9018181FB019181891709F445C088239E
:101B400049F0D801C701821B930BA40BB50B9C0174
:101B5000AD0104C02E193F09400B510B57FD04C0C5
:101B60001982DB82CA820BC081E08983DB82CA8250
:101B700050954095309521953F4F4F4F5F4F2C83A7
:101B80003D834E835F830DC0880F991FAA1FBB1F23
:101B90008C839D83AE83BF838A819B8101979B83C6
:101BA0008A838C819D81AE81BF819C01AD012150D2
:101BB0003040404050402F3FEFEF3E07EFEF4E07E1
:101BC000EFE35E0708F30BC08983DB82CA822E0D28
:101BD0003F1D401F511F2C833D834E835F8383E055
:101BE00088832C813D814E815F8157FF1DC0DA01C2
:101BF000C90181709070A070B07056954795379567
:101C00002795822B932BA42BB52B8C839D83AE839E
:101C1000BF838A819B8101969B838A8305C0E6E00E
:101C2000F1E003C0FB0101C0FE01CF01CDB7DEB77B
:101C3000EEE00C94DA12A0E2B0E0E1E2FEE00C94F7
:101C4000C61269837A838B839C832D833E834F8363
:101C5000588789E0E82EF12CEC0EFD1ECE0101968E
:101C6000B7010E94D1118E010F5E1F4FCE01059664
:101C7000B8010E94D111C701B801AE01475E5F4FA4
:101C80000E94D10C0E940311A096E6E00C94E2128F
:101C9000A0E2B0E0EEE4FEE00C94C61269837A8321
:101CA0008B839C832D833E834F8358878E01075FF0
:101CB0001F4FCE010196B8010E94D11191E1E92E8A
:101CC000F12CEC0EFD1ECE010596B7010E94D1113C
:101CD0008A8991E089278A8BC801B701AE01475EE6
:101CE0005F4F0E94D10C0E940311A096E6E00C9475
:101CF000E212A0E2B0E0EFE7FEE00C94BA126983D2
:101D00007A838B839C832D833E834F835887CE01B8
:101D10000196BE01675F7F4F0E94D111CE010596EB
:101D2000BE016F5E7F4F0E94D1119985923078F08D
:101D300089898230C0F0943019F4823041F4CBC0EC
:101D4000843019F4923079F4C6C0923051F481E0B5
:101D50002A859A89291709F480E08A87CE01099695
:101D6000BCC0823051F481E02A859A89291709F490
:101D700080E08A8BCE014196B0C06D847E848F84D2
:101D80009888ED88FE880F89188DE0E2F0E080E009
:101D900090E0DC01AA24BB24650120E030E0A90129
:101DA000B3016170707061157105D1F02E0D3F1D8A
:101DB000401F511F15012601280E391E4A1E5B1EA9
:101DC00081E090E0A0E0B0E02E153F05400751070C
:101DD00018F080E090E0DC01820D931DA41DB51D7C
:101DE000AA0CBB1CCC1CDD1C17FF09C061E0262E11
:101DF000312C412C512CA228B328C428D528319746
:101E000049F0EE0CFF1C001F111F969487947794E5
:101E10006794C6CF6B897C89EB85FC856E0F7F1F2D
:101E20006E5F7F4F7C8F6B8F61E0EA857A89E71761
:101E300009F460E06A8F6B8D7C8D10C0FC01E1704D
:101E4000F070309729F0569547953795279550684B
:101E5000B695A795979587956F5F7F4FB7FDEECFA6
:101E60000CC0880F991FAA1FBB1F57FD8160220F4E
:101E7000331F441F551F615070408030E0E09E07C3
:101E8000E0E0AE07E0E4BE0760F36B8F7C8F6FE7A6
:101E9000E62EF12C012D112DE822F9220A231B2315
:101EA00060E4E616F1040105110561F487FD0AC03E
:101EB000211531054105510529F0805C9F4FAF4F39
:101EC000BF4F80788D8F9E8FAF8FB8A383E0898FAF
:101ED000CE01499602C086E091E00E940311A096CF
:101EE000E2E10C94D612A8E1B0E0E9E7FFE00C943F
:101EF000C21269837A838B839C832D833E834F83B5
:101F000058878E01075F1F4FCE010196B8010E94CE
:101F1000D11181E1E82EF12CEC0EFD1ECE010596CB
:101F2000B7010E94D1119985923008F483C0898944
:101F3000823008F47BC02A853A8923272A87943087
:101F400011F0923021F4981709F06CC071C0843000
:101F500039F41D861E861F86188A1C861B866AC059
:101F6000823019F484E0898765C08B859C852B8934
:101F70003C89821B930B9C878B872D853E854F85E3
:101F80005889ED88FE880F89188D2E153F0540076A
:101F9000510738F4220F331F441F551F01979C87A8
:101FA0008B876FE170E0A12CB12CC12CA0E4DA2E5C
:101FB00080E090E0DC012E153F054007510740F01E
:101FC0008A299B29AC29BD292E193F09400B510BA9
:101FD000D694C794B794A794220F331F441F551F5C
:101FE0006150704041F76FE7E62EF12C012D112D65
:101FF000E822F9220A231B2360E4E616F104010516
:10200000110561F487FD0AC021153105410551050F
:1020100029F0805C9F4FAF4FBF4F80788D879E87A0
:10202000AF87B88B8E01075F1F4F04C0870102C0C6
:1020300006E011E0C8010E9403116896EAE00C94E2
:10204000DE12A8E1B0E0E7E2F0E10C94C612698389
:102050007A838B839C832D833E834F8358878E01A5
:10206000075F1F4FCE010196B8010E94D11181E197
:10207000E82EF12CEC0EFD1ECE010596B7010E9454
:10208000D1118985823040F08989823028F0C801D9
:10209000B7010E943A1201C08FEF6896E6E00C94F7
:1020A000E212A8E1B0E0E7E5F0E10C94C612698322
:1020B0007A838B839C832D833E834F8358878E0145
:1020C000075F1F4FCE010196B8010E94D11181E137
:1020D000E82EF12CEC0EFD1ECE010596B7010E94F4
:1020E000D1118985823040F08989823028F0C80179
:1020F000B7010E943A1201C08FEF6896E6E00C9497
:10210000E212A8E1B0E0E7E8F0E10C94C6126983BE
:102110007A838B839C832D833E834F8358878E01E4
:10212000075F1F4FCE010196B8010E94D11181E1D6
:10213000E82EF12CEC0EFD1ECE010596B7010E9493
:10214000D1118985823040F08989823028F0C80118
:10215000B7010E943A1201C081E06896E6E00C9453
:10216000E212ACE0B0E0E7EBF0E10C94CA12698354
:102170007A838B839C83CE010196BE016B5F7F4F78
:102180000E94D1118D81823081F1823070F18430D2
:1021900021F48E81882369F10AC02F81388537FDAB
:1021A00024C06E812F3131053CF0662311F120E00F
:1021B00030E040E050E821C08EE190E0821B930BBC
:1021C00029853A854B855C8504C05695479537959A
:1021D00027958A95D2F7662381F0509540953095E2
:1021E00021953F4F4F4F5F4F08C020E030E0A901DD
:1021F00004C02FEF3FEF4FEF5FE7B901CA012C9604
:10220000E2E00C94E612EF92FF920F931F93CF93AC
:10221000DF93FC0124813581468157816181808172
:10222000823020F44061EFEFF0E0A3C0843009F485
:102230009BC0823009F492C021153105410551053A
:1022400009F48FC00280F381E02D8FEFE238F807A8
:102250000CF05AC0C2E8DFEFCE1BDF0BCA31D1054C
:102260006CF579018A010C2E04C016950795F79438
:10227000E7940A94D2F781E090E0A0E0B0E00C2E61
:1022800004C0880F991FAA1FBB1F0A94D2F7019799
:10229000A109B10982239323A423B52321E030E0CF
:1022A00040E050E00097A105B10519F420E030E0CE
:1022B000A9012E293F29402B512B03C020E030E0FB
:1022C000A901DA01C9018F779070A070B0708034D5
:1022D0009105A105B10539F427FF09C0205C3F4FE6
:1022E0004F4F5F4F04C0215C3F4F4F4F5F4FE1E0C6
:1022F000F0E0203080E0380780E0480780E45807AD
:1023000028F5E0E0F0E022C0E038F1056CF5E15896
:10231000FF4FDA01C9018F779070A070B0708034E0
:102320009105A105B10539F427FF09C0205C3F4F95
:102330004F4F5F4F04C0215C3F4F4F4F5F4F57FFE0
:1023400005C05695479537952795319687E0569560
:102350004795379527958A95D1F70BC0E0E0F0E0D7
:1023600005C0E0E0F0E005C0EFEFF0E020E030E095
:10237000A9018E2F879588278795942F9F7767953A
:1023800066276795E695E22EA92FA82BFE2FF62B40
:10239000622F732F8A2F9F2FCDB7DEB7E6E00C9404
:1023A000E212DC01FB012C9111963C9111971296DF
:1023B0008C911297482F4F7750E0982F991F9927AB
:1023C000991F13966C911397862F880F892B90E095
:1023D000661F6627661F6183009739F52115310551
:1023E0004105510511F482E029C082E89FEF9383F3
:1023F000828367E0220F331F441F551F6A95D1F770
:1024000083E0808309C0220F331F441F551F828140
:102410009381019793838283203080E0380780E0A6
:10242000480780E4580778F320C08F3F910579F47E
:10243000211531054105510519F484E08083089583
:1024400044FF03C081E0808310C010820EC08F570C
:1024500090409383828383E0808387E0220F331F41
:10246000441F551F8A95D1F75064248335834683D2
:1024700057830895FC01DB019081923008F449C034
:102480008C91823008F445C0943051F461818430DD
:10249000B1F511962C91119730E0261B310941C0FE
:1024A000843021F0923041F48230B1F111968C9158
:1024B00011978823A1F12DC06181823001F111961D
:1024C0008C9111976817D9F42281338112968D91DE
:1024D0009C9113978217930794F028173907BCF043
:1024E000248135814681578114968D919D910D905F
:1024F000BC91A02D82179307A407B50718F4662393
:1025000041F00DC0281739074A075B0728F46623F6
:1025100031F021E030E005C020E030E002C02FEFD4
:102520003FEFC901089597FB092E07260AD077FDD2
:1025300004D00CD006D000201AF4709561957F4F1E
:102540000895F6F7909581959F4F0895AA1BBB1BA0
:1025500051E107C0AA1FBB1FA617B70710F0A61BA3
:10256000B70B881F991F5A95A9F780959095BC01C4
:10257000CD0108952F923F924F925F926F927F927A
:102580008F929F92AF92BF92CF92DF92EF92FF9283
:102590000F931F93CF93DF93CDB7DEB7CA1BDB0B2F
:1025A0000FB6F894DEBF0FBECDBF09942A883988D4
:1025B00048885F846E847D848C849B84AA84B984DB
:1025C000C884DF80EE80FD800C811B81AA81B981E7
:1025D000CE0FD11D0FB6F894DEBF0FBECDBFED01FB
:0625E0000895F894FFCFFE
:0E25E60048454C4C4F00000000000000000073
:00000001FF
